:100000000C94CF010C94BE180C9497180C94621A9F
:100010000C94FF190C948E190C94E5180C94FC1890
:100020000C94F7010C943E190C94F7010C94F70111
:100030000C94F7010C9468190C94F7010C94F701D7
:100040000C944D180C94F7010C941B180C94F51794
:100050000C94F7010C9434190C94F7010C94F701EB
:100060000C94F7010C94F701300030300030303040
:100070000030303030003030303030003030303010
:10008000303000303030303030300020000D0A0089
:10009000202D200020002000200020002000200033
:1000A0000D0A000000000000000000021405050019
:1000B0000000000201140100000000000000000028
:1000C0000000000201040000000000060305010119
:1000D00001010A060107000006000A0206020200EA
:1000E00000000005010804040404000000000000F2
:1000F00000000002140505000000000201140100C8
:1001000000000002010400000000000000000000E8
:10011000000000060305010101010A0601010105B5
:1001200001050A020602020000000005010804049D
:100130000404002D3E2000007761697441636B3A2E
:1001400020003C2D200008202122300100206C6F6F
:100150006E6772656C656173656400206C6F6E67B5
:100160007072657373656400206465626F756E6399
:1001700065002070726573736564002072656C653C
:1001800061736564004163746976617465204379C5
:10019000636C65204D7367004465616374697661C3
:1001A0007465204379636C65204D736700424F4F3F
:1001B000544C4F4144455200484156452044415417
:1001C000410069676E6F726520002D3E20000000BF
:1001D00000000000000002140505000000000201FC
:1001E0000A01000000000000000000000000000004
:1001F000000000000000060305010101010A0601DC
:1002000001010501050A02060202000000000501C5
:100210000804040404005245534554000D0A0050DC
:1002200061636B657420746F6F206269673A2000A8
:10023000435243204661696C65640000000000245D
:100240000027002A0000000000250028002B0000E5
:100250000000080002010000030407000000000085
:10026000000000436F6E66696720467265713A2030
:100270003078323100202D2072656164790043436B
:100280002056657273696F6E3A2000002E020603D5
:100290000D04E905CA070C0B060D210E650F6A1047
:1002A000C81193120315341703181819161B431E8F
:1002B0002F1F65207823E9242A251F26113E0331AC
:1002C00000434320696E6974000D0A00496E697429
:1002D0002053746F726167653A2000090A0B0C1491
:1002E000100D0A00202D2000416464726573732094
:1002F00053706163653A200000000000230026006F
:100300002900000102030405060700010203040599
:1003100000010203040504040404040404040202AA
:100320000202020203030303030301020408102074
:1003300040800102040810200102040810204173CB
:100340006B53696E2B2B2076352E302E32202844AD
:10035000656320323020323032322031333A30354A
:100360003A343029000D0A0020726561643A200099
:100370002065787065637465643A20004572726F19
:10038000722061742000F20E00706170616632307C
:1003900065303000F20E10800100DC1AF0211124CB
:1003A0001FBECFEFD8E0DEBFCDBF11E0A0E0B1E0CF
:1003B000ECE1F8E402C005900D92AA39B107D9F733
:1003C00023E0AAE9B1E001C01D92AC3EB207E1F71B
:1003D00011E0CEECD1E004C02197FE010E94C022C2
:1003E000CD3CD107C9F70E94D01C0C9401240C9479
:1003F00000008FEF08956A3050F4FC0180819181F4
:100400000596F5E06F9F800D911D1124089590E0F1
:1004100080E008950895AF92BF92CF92DF92EF925D
:10042000FF920F931F93CF93DF936C017B018B019E
:10043000040F151FEB015E01AE18BF08C017D107EE
:1004400059F06991D601ED91FC910190F081E02D78
:10045000C6010995892B79F7C501DF91CF911F91CD
:100460000F91FF90EF90DF90CF90BF90AF900895E5
:10047000FC01538D448D252F30E0842F90E0821BAA
:10048000930B541710F0CF96089501970895FC012F
:10049000918D828D981761F0A28DAE0FBF2FB11D87
:1004A0005D968C91928D9F5F9F73928F90E00895DF
:1004B0008FEF9FEF0895FC01918D828D981731F099
:1004C000828DE80FF11D858D90E008958FEF9FEFED
:1004D0000895FC01918D228D892F90E0805C9F4FC3
:1004E000821B91098F73992708958DED91E00E94E9
:1004F000690221E0892B09F420E0822F089580E031
:1005000090E0892B29F00E94750281110C94000063
:100510000895FC01A48DA80FB92FB11DA35ABF4F98
:100520002C91848D90E001968F739927848FA689F2
:10053000B7892C93A089B1898C91837080648C9346
:10054000938D848D981306C00288F389E02D8081F5
:100550008F7D80830895EF92FF920F931F93CF9327
:10056000DF93EC0181E0888F9B8D8C8D98131AC0EE
:10057000E889F989808185FF15C09FB7F894EE89D5
:10058000FF896083E889F989808183708064808332
:100590009FBF81E090E0DF91CF911F910F91FF907D
:1005A000EF900895F62E0B8D10E00F5F1F4F0F7325
:1005B0001127E02E8C8D8E110CC00FB607FCFACFE0
:1005C000E889F989808185FFF5CFCE010E948902F3
:1005D000F1CFEB8DEC0FFD2FF11DE35AFF4FF082B1
:1005E0009FB7F8940B8FEA89FB8980818062CFCF17
:1005F0000F931F93CF93DF938C01D0E0C0E0F801FD
:10060000EC0FFD1F6491662341F08DED91E00E9497
:10061000AB02892B11F02196F2CFCE01DF91CF9161
:100620001F910F910895CF93DF93EC01888D88235C
:10063000B9F0AA89BB89E889F9898C9185FD03C045
:10064000808186FD0DC00FB607FCF7CF8C9185FF2A
:10065000F2CF808185FFEDCFCE010E948902E9CFE4
:10066000DF91CF910895833081F028F4813099F0A3
:100670008230A9F008958730A9F08830C9F084301D
:10068000B1F4809180008F7D03C0809180008F77CE
:1006900080938000089584B58F7784BD089584B5D4
:1006A0008F7DFBCF8091B0008F778093B00008954D
:1006B0008091B0008F7DF9CFCF93DF93282F30E06A
:1006C000F901E15BFD4F8491F901E65DFC4FD491A6
:1006D000F901EA5EFC4FC491CC23A1F081110E9484
:1006E0003303EC2FF0E0EE0FFF1FE850FD4FA59114
:1006F000B491EC91ED2381E090E009F480E0DF918A
:10070000CF91089580E090E0FACF1F93CF93DF93CD
:10071000282F30E0F901E15BFD4F8491F901E65D9E
:10072000FC4FD491F901EA5EFC4FC491CC23A9F0AF
:10073000162F81110E943303EC2FF0E0EE0FFF1F04
:10074000EB5BFD4FA591B4918FB7F894EC9111112B
:1007500008C0D095DE23DC938FBFDF91CF911F912E
:100760000895DE2BF8CFCF93DF9390E0FC01E65D98
:10077000FC4F24918A5E9C4FFC0184918823C9F030
:1007800090E0880F991FFC01E55CFD4FA591B491A5
:10079000FC01EB5BFD4FC591D49161110DC09FB77A
:1007A000F8948C91209582238C9388812823288328
:1007B0009FBFDF91CF910895623051F49FB7F894B5
:1007C0003C91822F809583238C93E8812E2BEFCF51
:1007D0008FB7F894EC912E2B2C938FBFEACF61E06A
:1007E0008AE00C9485038EBD0DB407FEFDCF8EB557
:1007F00008958CE00E945C038111FBCF089560E0B6
:100800008AE00C948503CF93C82F0E94FF030E94B7
:10081000F9038C2F0E94F303C82F0E94EF038C2F43
:10082000CF91089586E30E9403048DE30E940304A0
:100830008AE30C940304CF93DF93D82FC62F0E9432
:10084000FF030E94F9038D2F8C2B0E94F30380E09D
:100850000E94F303C82F0E94EF038C2FDF91CF91EA
:100860000895FC01108608950895FC0182899389FA
:1008700060E0911101C061E00C948503FC01828964
:10088000938961E0911101C060E00C9485030895A3
:100890001F93CF93DF93FC01238520FF11C0162FF8
:1008A000EC010E94FF030E94F9030E94EF03111163
:1008B0000E94120484E30E9403048B858E7F8B8741
:1008C000DF91CF911F910895E091A801F091A901C6
:1008D000838581FD03C083858C60838708958111A2
:1008E00004C0EBE4F1E0849108958FEF0895853022
:1008F00030F4E82FF0E0EA5BFE4F849108958FEF2B
:1009000008950895089580E00895DC01ED91FC912B
:100910000190F081E02D6BE872E00994863030F4AC
:10092000E82FF0E0E552FD4F849108958FEF089590
:10093000089508950895089508950F931F93CF93F0
:10094000DF9322E531E0FC01318320838C01005CE0
:100950001F4F79F0EC01C852DF4F0C171D0749F00B
:10096000A697E881F9810280F381E02DCE010995F7
:10097000F4CFDF91CF911F910F91089528E631E0D8
:10098000FC01318320830C949D04089508950C94F8
:10099000F8020E94C70480EA90E00C94C7040F9309
:1009A0001F93CF938C01C62F88E691E06430A1F0AD
:1009B00058F48BE791E0623079F082E791E06330A0
:1009C00059F08CE491E008C08BE591E0653021F0AE
:1009D0008DE491E06630A9F70E94C904C770F80160
:1009E0008085887FC82BC087CF911F910F91089574
:1009F000982FFB0180E02491291729F08F5F319611
:100A00004813F9CF8FEF089541E06BE471E00C9447
:100A1000F80445E066E471E00C94F8040C940905D0
:100A200046E06BED72E00C94F8040C9410058627F8
:100A300028E0BC0176956795AC014170552780FF91
:100A400002C041E050EACB0184279527215089F765
:100A50000895DC0150E0681B790B9D01281B390BC0
:100A60002417350734F4FB01EA0FFB1FE491ED93E3
:100A7000F4CF089543E06CEF7FE70C942905FC0167
:100A80008081811109C08181811106C081E092813C
:100A9000911103C080E0089581E00895DC01FB011D
:100AA0009C91808198130BC011969C911197818124
:100AB000981305C081E012962C919281291380E051
:100AC0000895CF93DF93EC01FB0180818F838181B7
:100AD00088878281898763E872E0CF010E944E0592
:100AE000882321F08A818F7D84608A83DF91CF9172
:100AF0000895FC013381FB012381321302C00C9461
:100B00004E0580E00895CF93DF9300D000D0CDB79D
:100B1000DEB7FC0180899485998395859A839685B3
:100B20009B838C83882389F0BF01645F7F4FCE0154
:100B300001960E947905811108C082E00F900F9004
:100B40000F900F90DF91CF91089581E0F7CF2FB7ED
:100B5000F894FC01808191812FBF0895FF920F933B
:100B60001F93CF93DF93EC018B01FFB6F8940E94A3
:100B7000A7059C019FB7F894F801318320839FBF9C
:100B80008FB7F894198308838FBFFFBEDF91CF9191
:100B90001F910F91FF9008956F927F928F92DF9235
:100BA000EF92FF920F931F93CF93DF937B0122E08D
:100BB000E20EF11CDB0115962D913D914C91232BFA
:100BC000242B09F44DC0EB01DFB6F8942C81226090
:100BD0002C838C010E94A705009709F43EC0FC01FC
:100BE0003297A1F06580768087802D813E814F818C
:100BF000CF01029662167306840650F4261937094F
:100C000048092D833E834F838C01E4CF90E080E040
:100C10002FB7F8949B838A832FBF8FB7F894D8019E
:100C2000ED92FC928FBF309761F085819681A7810C
:100C30002D813E814F81821B930BA40B858396836C
:100C4000A783DFBEDF91CF911F910F91FF90EF90AF
:100C5000DF908F907F906F900895F0E0E0E0D8CF24
:100C6000B7010296DF91CF911F910F91FF90EF9006
:100C7000DF908F907F906F900C94AE05CF93DF93B1
:100C8000EC01CB0120E03DED4DE62D833E834F830B
:100C9000BE010E94CC05A885B98581E09D969C91F6
:100CA0009D97981778F0E82FF0E07796EE0FFF1FEA
:100CB000EA0FFB1F0190F081E02D928591609287F1
:100CC0008F5FECCFDF91CF9108951F93CF93DF9388
:100CD000EC01FB012885922F9770943079F040F455
:100CE000923051F0933039F1DF91CF911F910895F7
:100CF000953009F19630C1F711E012C023FD21C0F3
:100D00002A853B852550310913E02115310541F035
:100D100040E02D833E834F83BE01CF010E94CC056E
:100D2000E881F9810680F781E02D612FCE01DF9106
:100D3000CF911F91099423FDD7CF2A853B8515E0DC
:100D4000E4CF25E030E012E0E3CF0F931F93CF9381
:100D5000DF93EC018B01E88981E08E0F888BEC0F2B
:100D6000FD2FF11D228530E0A4E6B0E00E949F2215
:100D70002AE030E040E050E00E947D222D833E8357
:100D80004F83BE01C8010E94CC0588898170DF9124
:100D9000CF911F910F910895EF92FF920F931F93A0
:100DA000CF93DF93EC01FFB6F8940E94A7058C0166
:100DB000892B71F0EFB6F894CE010E94A7050E942E
:100DC000A7059C019FB7F894398328839FBFEFBE86
:100DD000FFBEC801DF91CF911F910F91FF90EF905F
:100DE0000895BF92CF92DF92EF92FF920F931F93DD
:100DF000CF93DF93EC01FFB6F8948C818D7F8C83C9
:100E00008BE892E00E94A7050097C9F19C0122504F
:100E100031098BE892E02115310589F189010E5FD6
:100E20001F4FC217D30709F50E94CC06C8010E94C4
:100E3000A705009779F0FC01329761F085819681D2
:100E4000A7812D813E814F81820F931FA41F85832F
:100E50009683A783FFBEDF91CF911F910F91FF90E3
:100E6000EF90DF90CF90BF900895C8010E94A70532
:100E7000009729F09C0122503109C801CCCF6E01A6
:100E800082E0C80ED11CEFB6F894BFB6F8948DE896
:100E900092E00E94A705EC012DE832E0209779F05E
:100EA00010E000E0CC16DD0609F48901CE010E94B5
:100EB000A7059E010115110521F4EC01EFCF10E00B
:100EC00000E0BFBE0115110511F4EFBEC3CFC8018C
:100ED0000E94CC06FACFEF92FF920F931F93CF930D
:100EE000DC0118960D911C91F80181850E945C032C
:100EF000D8011896CC911897C3FBEE24E0F8F12C9A
:100F00008E151F04C9F180FBC3F91896CC93C770E6
:100F1000C33031F0C53021F0C130C1F4C4E007C0A6
:100F2000F801808583FF12C0C33021F1C6E0C801FB
:100F30000E94F10685E090E0A0E0F80185839683A9
:100F4000A783B8018BE892E00E94CC05D8011896DF
:100F50008C91189787708C1779F0ED91FC91068031
:100F6000F781E02D6C2FC801CF911F910F91FF9059
:100F7000EF900994C2E0DBCFCF911F910F91FF90CA
:100F8000EF9008958BE992E00E94F1066BE972E020
:100F90008BE892E00C94CC058F929F92AF92BF9217
:100FA000CF92DF92EF92FF92CF93DF93EC014A0151
:100FB0005B018BE892E00E94A7050097B9F481E0FD
:100FC0008887CE010E94F1068D829E82AF82BE018B
:100FD0008BE892E0DF91CF91FF90EF90DF90CF9080
:100FE000BF90AF909F908F900C94CC050297C12C2E
:100FF000D12C7601009719F3FC01258136814781B8
:10100000642FA90170E0C40ED51EE61EF71EC81796
:10101000D90739F002960E94A705009781F202973E
:10102000E9CFC814D904EA04FB0448F2DF91CF9158
:10103000FF90EF90DF90CF90BF90AF909F908F90F8
:101040000895CF92DF92FF920F931F93CF93DF9378
:101050008C01FFB6F8940E94A705009769F1EC0196
:10106000229751F18D819E81AF810197A1098D83D6
:101070009E83AF83680182E0C80ED11C8D819E8162
:10108000AF81892B8A2BC1F4C8010E94CC068C81C8
:1010900080FF1CC08D7F8C83E881F9810190F081F5
:1010A000E02DB801CE010995C8010E94A70500975F
:1010B00019F0EC01229711F7FFBEC801DF91CF9123
:1010C0001F910F91FF90DF90CF900895BE016E5F4A
:1010D0007F4FC6010E94AE05E7CFCF93DF93C82FA5
:1010E00062E00E94B3038C2F0E945C03D82F60E063
:1010F0008C2F0E94B3038D2FDF91CF9108958F9293
:101100009F92AF92BF920F931F93CF93DF93CDB770
:10111000DEB7A1970FB6F894DEBF0FBECDBF19A200
:10112000423008F44AE08E010F5D1F4F842E912C4F
:10113000B12CA12CA50194010E947D22E62FB901BA
:10114000CA01EA3044F5E05DD801EE938D01232B0E
:10115000242B252B79F790E080E0109769F0FD01B2
:1011600001900020E9F73197AF014A1B5B0BBD01ED
:101170008DED91E00E940B02A1960FB6F894DEBFB0
:101180000FBECDBFDF91CF911F910F91BF90AF9058
:101190009F908F900895E95CD7CFCF93C82F80316F
:1011A00028F460E38DED91E00E94AB026C2F70E0BB
:1011B00090E080E040E1CF910C947F08EF92FF92A5
:1011C0000F931F93CF93DF93EC0188810E94CD088A
:1011D0008EE990E00E94C70489810E94CD088CE9C5
:1011E00090E00E94C7048A810E94CD088AE990E0BD
:1011F0000E94C7048B810E94CD0888E990E00E947C
:10120000C7048C810E94CD088D810E94CD088E81FB
:101210000E94CD0886E990E00E94C7048F810E9459
:10122000CD0888850E94CD0889850E94CD0884E973
:1012300090E00E94C704088109502A967E0110E0C0
:10124000C7018C1B9D0B8017910754F4F701819106
:101250007F010E94CD088BE890E00E94C704F0CF88
:1012600080E990E00E94C7042FB7F8946091A40130
:101270007091A5018091A6019091A7012FBF4AE02E
:101280000E947F088DE890E0DF91CF911F910F9130
:10129000FF90EF900C94C704CF92DF92EF92FF92F1
:1012A0006B017C0180E1C816D104E104F10468F40B
:1012B00083E890E00E94F80240E1C701B601FF9088
:1012C000EF90DF90CF900C947F088FEFC816D10479
:1012D000E104F10409F018F48CE790E0EBCFC114BD
:1012E00080E1D806E104F10418F486E790E0E2CF4B
:1012F000C114D10481E0E806F10418F481E790E01C
:10130000D9CFC114D10480E1E806F10418F48DE6C8
:1013100090E0D0CFC114D104E10481E0F80618F4C4
:101320008AE690E0C7CFC114D104E10480E1F80659
:1013300018F688E690E0BECF1F93CF93DF931F92FD
:10134000CDB7DEB7162F0E9410058F3F99F0609140
:10135000D6027091D702680F711D198341E050E0E9
:10136000CE0101960E940D2281E00F90DF91CF9176
:101370001F91089580E0F9CFEF92FF920F931F9392
:10138000CF93DF931F92CDB7DEB78C017B01E80EC0
:10139000F91E198241E050E0B801CE0101960E9489
:1013A0000D220F5F1F4FE016F10699F781E00F90B5
:1013B000DF91CF911F910F91FF90EF9008950F93C0
:1013C0001F93CF93DF93D82FC62F142F0E94FF03B4
:1013D0000E94F9038D2F0E94F3038C2F0E94F303C8
:1013E0000E94EF0360E88D2F0E941B04082F81E00C
:1013F000C01771F0112389F04FEF410F6C2F8D2F23
:101400000E94DF09EFECF7E03197F1F700C0000030
:10141000DF91CF911F910F9108958CE793E00E9487
:10142000C7048D2F0E94CD0880E793E00E94C70477
:101430008C2F0E94CD0888E693E00E94C704802F7D
:101440000E94CD0885E693E00E94C70480E0E0CFCB
:10145000AF92BF92CF92DF92EF92FF920F931F93C2
:10146000CF93DF938C016B01DC011B968C911B9752
:101470008B7F1B968C937801BDE0EB0EF11C60EC2A
:101480008BE30E941B0418160CF042C060E88FE347
:101490000E941B04C82F8D3108F06BC00E94FF030F
:1014A0000E94F9038FEF0E94F303DE2D57018A2D6E
:1014B0008D1B8C1738F480E00E94F303F5018193B3
:1014C0005F01F5CF0E94EF0360E88FE30E941B04E9
:1014D000282F30E0082E000C990B88279170A90165
:1014E000481B590BCA0157FD019695958795919513
:1014F00081959109865BD80111968C9360E88FE302
:101500000E941B0487FD05C080E392E00E94C9048D
:10151000C0E08AE30E940304EBE7F1E03197F1F7C2
:1015200000C000000E94120484E30E940304CC2344
:10153000D1F1D8011C96CC931C971D968C911D97C8
:1015400096E798271D969C9321E04C2F50E0BA0116
:1015500061507109A22FB0E0F701EA0FFB1F9081E3
:10156000A617B707B4F48452892780832F5F892F89
:10157000F1CF8FE192E00E94C7046C2F70E090E001
:1015800080E04AE00E947F088CE192E00E94C7045C
:10159000BFCFD8011E968C9189278083B701C601E1
:1015A00001960E94F823F601C083D8011C961C9274
:1015B00060E0C8010E944804F6018081DF91CF916C
:1015C0001F910F91FF90EF90DF90CF90BF90AF9061
:1015D0000895CF93DF931F92CDB7DEB7198241E014
:1015E00050E0BC01CE0101960E94FD2189810F903F
:1015F000DF91CF910895CF93DF93EC0188E10E94B2
:1016000010058F3F59F028813981820F932F911D4A
:101610000E94E90A8170DF91CF91089580E0FBCFAD
:101620008E960E94FB0A81110DC086E192E00E9415
:10163000C90464E070E090E080E00E94BC09F0E042
:10164000E0E0099408950F931F93CF938C01862FA8
:10165000C42F0E9410058F3F59F0F801208131817D
:10166000820F932F911DCF911F910F910C94E90A36
:101670008C2FCF911F910F910895CF93DF93EC01A1
:1016800040E069E08E960E94230BC852DF4F88230A
:10169000A1F085E891E00E94C904CE010E94F10604
:1016A00080E09DEDADE68D839E83AF83BE018BE828
:1016B00092E0DF91CF910C94CC0588E991E00E94F3
:1016C000C904CE01DF91CF910C94F106EF92FF9205
:1016D0000F931F93CF93DF93EC018B0140E06CE0FD
:1016E000C8010E94230BF82E40E06BE0C8010E9465
:1016F000230BE82E40E06AE0C8010E94230B888398
:10170000E982FA82CE01DF91CF911F910F91FF9074
:10171000EF900895BF92CF92DF92EF92FF920F93D6
:101720001F93CF93DF931F92CDB7DEB76C01142FB9
:10173000B22EE62EF12CFC01808191818E0D9F1D31
:101740000E94E90AF601608171816E0D7F1D212FD3
:1017500001C0220F0A95EAF728272B2182278983C7
:1017600041E050E0CE0101960E940D2281E00F90F1
:10177000DF91CF911F910F91FF90EF90DF90CF906D
:10178000BF900895CF93DF93EC01CB011A821982A9
:1017900018821B82642F04960E94FB01009731F08F
:1017A00044E050E0BC01CE010E94FD21CE01DF915A
:1017B000CF910895EF92FF921F93CF93DF9300D0C4
:1017C00000D0CDB7DEB77C0110E0412FB701CE01CC
:1017D00001960E94C20BCE0101960E943F0588230C
:1017E00021F01F5F1A3089F71FEF812F0F900F90A4
:1017F0000F900F90DF91CF911F91FF90EF90089580
:10180000CF92DF92EF92FF921F93CF93DF9300D09E
:1018100000D0CDB7DEB77C016B0110E0412FB701DE
:10182000CE0101960E94C20BBE016F5F7F4FC601C1
:101830000E947905811103C01F5F1A3079F70F905C
:101840000F900F900F90DF91CF911F91FF90EF902D
:10185000DF90CF900895AF92BF92CF92DF92EF9238
:10186000FF921F93CF93DF9300D000D0CDB7DEB7A8
:101870007C016B0110E05C0184E0A80EB11C412FDB
:10188000B701CE0101960E94C20BB601CE010196AE
:101890000E947905882379F01B821A8219821C82A2
:1018A000612FC5010E94FB0144E050E0BC01CE0164
:1018B00001960E940D221F5F1A3009F781E00F90F8
:1018C0000F900F900F90DF91CF911F91FF90EF90AD
:1018D000DF90CF90BF90AF900895CF92DF92EF92BC
:1018E000FF921F93CF93DF9300D000D0CDB7DEB728
:1018F0007C016B0110E0412FB701CE0101960E94DF
:10190000C20BB601CE0101960E947905882391F0A1
:10191000612FC70104960E94FB0104960F900F905F
:101920000F900F90DF91CF911F91FF90EF90DF907C
:10193000CF9008951F5F1A30F1F690E080E0EECF6F
:10194000CF93DF9300D000D000D01F92CDB7DEB789
:10195000211120C0FC0186A597A59A83898386E082
:101960008B838EE894E09D838C8385E195E09F8353
:101970008E8329813A814B815C816D817E818F814B
:1019800090E027960FB6F894DEBF0FBECDBFDF9173
:10199000CF910895662359F1FC0135A5361770F1F2
:1019A000E62FF0E07796EE0FFF1FE80FF91F80811A
:1019B0009181213081F4FC01848595852EE035E00C
:1019C00047E754E065E09A8389836B835D834C83AA
:1019D0003F832E83CECF243089F4BA0108960E942B
:1019E0006D0C24E035E04FE654E061E0ECCF30E0F0
:1019F00020E050E040E090E080E0E5CF30E020E003
:101A000050E040E060E0F7CF1F93CF93DF93EC010D
:101A10001FB7F89498898885981760F4CE010E94C2
:101A2000A5061FBF8823C1F0CE01DF91CF911F9182
:101A30000C943504188A9985992381F389898F5FDD
:101A4000898B891758F348E050E06EEC71E0CE01C5
:101A500008960E94F4211FBFCE01DF91CF911F9104
:101A60000C943E04EF92FF920F931F93CF93DF935A
:101A7000EC017B018A010E94F106CE010E943E0426
:101A8000B70183E0660F771F8A95E1F7600F711F3A
:101A900048E050E0CE0108960E94F4218885882312
:101AA00081F0188A198A6BE872E0CE010E94A506BF
:101AB000CE01DF91CF911F910F91FF90EF900C9489
:101AC0003504DF91CF911F910F91FF90EF90089512
:101AD0000F931F93CF93DF93EC018B014BEE50E0FC
:101AE00001960E94320D43EA50E0B801CE014596BE
:101AF000DF91CF911F910F910C94320D2F923F9255
:101B00004F925F926F927F928F929F92AF92BF920D
:101B1000CF92DF92EF92FF920F931F93CF93DF93B9
:101B2000CDB7DEB7A4970FB6F894DEBF0FBECDBF1A
:101B30006C018B01BA01C8010E946105C8010496BD
:101B40000E943A05F80182818068828346E064E160
:101B5000F601848195810E94230BB82E811102C069
:101B6000BB24B394F601E480F58085E00E94100563
:101B70008F3F09F45DC0F70120813181820F932FDF
:101B8000911D0E94E90A782E72947694769443E02F
:101B9000742241F0F6018281938162E070E0019647
:101BA0000E94680DC80101969CA38BA33AE0432EC6
:101BB000512C612CF8013796F9A3E8A3BB2009F456
:101BC00085C1F601E280F3804701F4E38F0E911C9A
:101BD000F801828180718AA31701F0E42F0E311C75
:101BE000C10101969F8F8E8FF801408150E06BA15B
:101BF0007CA10E94F823F8012081F1012083319615
:101C0000808196E7892780833196908161E0215019
:101C1000330B462F50E0EE8DFF8DE40FF51F7081E2
:101C20004217530744F48452872780836F5FF1CFB4
:101C300077247394AFCF892F87278083F101308079
:101C4000B7016A5C7F4FF701A6ACAA2039F08FEC90
:101C500097E00197F1F700C00000F5CF43AE54AE16
:101C600065AE21E026AF8BE892E00E94CC0561E0F2
:101C7000C4010E944804F70187AD826087AF86E304
:101C80000E9403048BE30E94030428EC922E85E358
:101C90000E94030487EC90E00197F1F700C0000078
:101CA0009A9491107EC086E30E9403048BE30E9405
:101CB00003048DE30E94030484E30E94030460ECA8
:101CC00085E30E941B048D30B9F7912CF70187AD95
:101CD0008D7F87AF82E491E00E94C704C8010E9413
:101CE000DE08BA94992009F469CFF801828185FF52
:101CF00032C088A199A10E943F05882361F1198211
:101D00001A821B821C821F821E821D821A861986DD
:101D100018861B861C868CE3F82EF601828193813F
:101D2000FC0127AD22FD8DC08FE19EE40197F1F704
:101D300000C00000FA94F110F0CF88E391E00E9417
:101D4000C7048A2D0E94CD0887E391E00E94C90450
:101D5000AA2009F433CF11E0772049F0F6018281FF
:101D60009381019611E063E070E00E94680D812F7D
:101D7000A4960FB6F894DEBF0FBECDBFDF91CF9112
:101D80001F910F91FF90EF90DF90CF90BF90AF9099
:101D90009F908F907F906F905F904F903F902F908B
:101DA000089560EC85E30E941B04833109F06FCF36
:101DB000EFE1FEE43197F1F700C00000FAA1FF2344
:101DC00049F02FE78BE898E0215080409040E1F700
:101DD00000C000000E94FF030E94F9038FE30E94ED
:101DE000F303832D0E94F3030E94EF030E94FF037D
:101DF0000E94F9038FE70E94F3032E8C822C9F8CA4
:101E0000882D8219831530F4F40181914F010E94CD
:101E1000F303F6CF0E94EF0398EC992E60EC85E374
:101E20000E941B048D3019F4992493944FCF87ECB2
:101E300090E00197F1F700C000009A949110EECF66
:101E4000F3CFBE016F5F7F4FC4960E94280A88239C
:101E500009F46ACF83E391E00E94C704CE010196A2
:101E60000E94DE08F80191818A8198135DCFBE013E
:101E70006B5F7F4F88A199A10E944E05882309F4CA
:101E800053CF8C81823041F48B85A82EA094AA1C5C
:101E9000AA24AA1C87FDB12CF801828181FD03C010
:101EA0008B8180FF4ACFF6018281938142E350E02B
:101EB00060E070E08B960E94CC073FCFF6018281F4
:101EC0009381019610E064E070E04FCF7110F6CF7F
:101ED00010E04DCF0F931F93CF93DF93EC018B0155
:101EE0008AE18B871E861D864C871E8A8AA59BA544
:101EF000FC01719624914096FC0184918D8B2AA35C
:101F000042E060EF7FE7CE0146960E9429054AE055
:101F100062EF7FE7CE0148960E9429058DA58BA32D
:101F20006AA57BA56E5E7F4F42E050E0CE018496AD
:101F30000E94F421BE01655F7F4FA801CE01DF91B1
:101F4000CF911F910F910C947E0DEF92FF920F9302
:101F50001F93CF93DF9300D01F92CDB7DEB78C01D4
:101F6000E62EFC0180858770F82EC8010E94CF0400
:101F7000F2E0EF1230C0F8010789108DF801F68009
:101F8000F394F68264817581CE0101960E94660BFE
:101F90004F2DBE016F5F7F4FC8010E946A0FF8018D
:101FA0008281938161E070E001960E94680DF801E2
:101FB0008281938140ED57E060E070E08B960E9453
:101FC000CC070F900F900F90DF91CF911F910F9141
:101FD000FF90EF900895F5E0EF12F3CFF8018789B5
:101FE000908DF5E0FF120BC08E960E94FB0A8111C6
:101FF000E8CFF8018789908D0E94100BE2CFFC0199
:102000008281938167E070E001960E94680DD9CFCC
:102010003F924F925F926F927F928F929F92AF9278
:10202000BF92CF92DF92EF92FF920F931F93CF93C5
:10203000DF93CDB7DEB728970FB6F894DEBF0FBE9B
:10204000CDBFFC01A085B18518960D911C91199703
:1020500068018BE0C80ED11C3385228581E0820F98
:1020600082871B969C91D80116968C9116978F5F4C
:1020700016968C9316974CE01B964C931B9741E455
:102080001E964C931E9742E21D964C931D979F738C
:1020900055969C9355971C968C931C9756962C930B
:1020A000569757963C930084F185E02DE084F184A7
:1020B000B12CA12C812C3F01B8E06B0E711C2801C2
:1020C000EFE04E0E511CFAE0AF16B10409F48DC0DA
:1020D0004A2DB301CE0105960E94C20BCE01059692
:1020E0000E943F05382E882309F446C0912C492DC3
:1020F000B301CE0101960E94C20BBE016F5F7F4FFC
:10210000CE0105960E944E05811106C093948AE087
:102110009812EDCF99249A949A141B046CF11B82A7
:102120001A821982CE0101960E943A05BE016F5FA4
:102130007F4FCE0105960E944E05882359F1C201BA
:102140000E943A05B201C6010E946105D8011D96A0
:102150008C911D9785FF14C08F7D1D968C93D701A0
:10216000ED91FC910680F781E02DB601C70109953C
:10217000F801858580628587BFEFAB1ABB0AA3CFC4
:10218000D701ED91FC910680F781E02DB601C701E2
:102190000995F2CFBE016B5F7F4FC3010E946D0CAA
:1021A0004C0141E06BE471E081E00E94F8048F3F54
:1021B000A1F0880D992D911D0E94E90A80FF0DC0A4
:1021C000F801858580618587AE014B5F5F4FB60161
:1021D000C7010E947E0D832CCFCFD8011D968C9114
:1021E0001D978F7E1D968C93EFCF81100EC0F70147
:1021F00064817581CE0101960E94660BAE014F5F2E
:102200005F4FB601C7010E947E0D28960FB6F89465
:10221000DEBF0FBECDBFDF91CF911F910F91FF9019
:10222000EF90DF90CF90BF90AF909F908F907F9076
:102230006F905F904F903F900895CF92DF92EF9212
:10224000FF920F931F93CF93DF9300D0CDB7DEB7EC
:102250008C01CB0124E630E040E0D80115962D93A7
:102260003D934C93B8010E94CC05F801E18C84A108
:102270000E946D08F82ED80193968C910E946D08EB
:10228000FF0CEF2DE82BE370E00FF12FF11D878D90
:10229000F801868F823009F457C0833009F465C095
:1022A0008130D1F4C484D58480E20E9409058F3F37
:1022B00099F08C0D9D2D911D0E94E90A82958695BD
:1022C00086958370813009F461C0823009F460C062
:1022D000833011F424E6E22ED80159968C91599757
:1022E0008F3F09F058C05996EC92D8015A968C91BC
:1022F0008823F9F00E946D08FF24F3948111F12CDA
:10230000F801838D8F15A9F00084F185E02D41E05F
:1023100060E1848195810E94230B882351F0D801CC
:102320005B96FC925B971A968C911A9781601A962D
:102330008C930F900F90DF91CF911F910F91FF9091
:10234000EF90DF90CF900895C484D58480E20E94FE
:1023500009058F3F09F4C0CF8C0D9D2D911D0E9462
:10236000E90A807382958F70ADCFC484D58480E2F2
:102370000E9409058F3F09F4AFCF8C0D9D2D911D53
:102380000E94E90A8C70869586959CCFE12CA4CF9B
:1023900098ECE92EA1CF8E1509F4A7CFF801C484DB
:1023A000D58481E20E940905F12C8F3F31F08C0D1C
:1023B0009D2D911D0E94E90AF82ED8015996EC92A4
:1023C0006801BEE0CB0ED11CC6010E94F106F110DF
:1023D0005AC06BE872E0C6010E940810D8011C9632
:1023E000ED90FC9082E20E9409058F3F09F46EC0D7
:1023F0008E0D9F2D911D0E94E90AB5E08B9F9001E3
:1024000011242115310509F470CFD8011896ED91EA
:10241000FC91E280F380F7018285811166CFA4E60A
:10242000B0E00E949F2228EE33E040E050E00E949E
:102430007D22211531054105510509F456CF67016B
:10244000F2E0CF0ED11C82E0D7011A968C931A9736
:1024500081E01B968C93AAE0B0E00E94B52224E6AE
:1024600030E040E050E00E947D22F701248715868D
:10247000138A128A6BE872E0C6010E94A506C601A3
:102480000E94350432CF81E089838CE38A832F2D2B
:102490002F7730E0A4E6B0E00E949F229B01AC01C0
:1024A000EF2DF0E0EE0FEF2FEE1FFF0BEC0FFD1FF7
:1024B000A181B0E00E94B522F801638B748B858BFB
:1024C000B6018BE892E00E94CC0588CF84E695CFD8
:1024D0002F923F924F925F926F927F928F929F9234
:1024E000AF92BF92CF92DF92EF92FF920F931F9322
:1024F000CF93DF93CDB7DEB7A6970FB6F894DEBFC4
:102500000FBECDBF7C018B011BA21AA219A2CE0166
:1025100081960E943A05280127E0420E511CBE0117
:102520006F5D7F4FC2010E944E05C82E882309F4BB
:102530005EC0D7011296CD90DC905601B6E3AB0E8B
:10254000B11CC5010E94F1068AE090E0A0E0F6010E
:1025500083AF94AFA5AF81E086AFB5018BE892E081
:102560000E94CC058AEC91E00E94C704C8010E9439
:10257000DE08D80112968C9186FD91C0D801149680
:102580008C911497F701878315968C911597808706
:1025900016968C911697818711968C911197828748
:1025A00013968C9113971A96BC901A971B963C9091
:1025B0001B97813009F0ACC3FAE03F1283C04AE0B8
:1025C00062EF7FE7CE0101960E9429054AE050E0C4
:1025D000BE016F5F7F4FC8010C960E94EB23892BD1
:1025E00009F4F7C0D12CC12C82E0382EA5C0F80127
:1025F0008081898381818A83B280BB82D380DC829F
:1026000084818D8385818E8386818F83878188876E
:102610008085898781858A8782858B87A384AC861C
:1026200081E13C96DE011D9601900D928A95E1F7BD
:1026300063E872E0CE0108960E944E05882339F0C7
:10264000F1E0DF1204C02AE0A21609F472CFB2FE54
:1026500005C080EC8D0D823008F46BCF82EC91E0E8
:102660000E94C704C8010E94DE088C2DA6960FB6F2
:10267000F894DEBF0FBECDBFDF91CF911F910F91B8
:10268000FF90EF90DF90CF90BF90AF909F908F9092
:102690007F906F905F904F903F902F900895B8017A
:1026A0006C5F7F4FC70107960E944E05882309F48F
:1026B00065CFD7011A969C91F801818198135ECF5E
:1026C000C12CD3CF21E03212E5C0BB2009F48ACF60
:1026D000F70185A58B1508F485CFEB2DF0E07796F3
:1026E000EE0FFF1FEE0DFF1DC080D180C8010E94BC
:1026F00083054801FCE08F0E911C560128E0A20ED4
:10270000B11C813009F084C0B401C5010E942B0CBA
:10271000C5010E94DA0B8F3F09F466CF682FC6010E
:102720000C960E94FB0144E050E0BC01C4010E94F1
:102730000D2281E0F70184A7D80112968C9185FFC4
:102740003BC0BE016F5D7F4FC2010E944E058823D2
:1027500099F1B1E03B120CC4A8014C5F5F4FC1146A
:10276000D10409F4F9C3D7011296ED91FC9195A912
:102770008EE0F801808382E0838312823286D60164
:102780001B968C911B97838759968C9159978487B8
:102790005B968C91882309F4DDC38EE0F801858770
:1027A0009687B801C7010E947E0DD6011A968C91BA
:1027B0001A978E7F1A968C93F7018281938142E358
:1027C00050E060E070E08B960E94CC07CC24C3946C
:1027D0004CCFD70112968D919C9161E070E00196EB
:1027E0000E94680DF7018281938140ED57E060E01F
:1027F00070E08B960E94CC07D8014C91B8016C5FB9
:102800007F4FC7010E946A0FD12CC12C312C94CF6D
:10281000D80150968C9150971C969C911C97998347
:102820001D969C911D979A831E969C919B838C83E9
:10283000B401C5010E942B0CBE016F5F7F4FC50123
:102840000E942B0CC5010E94DA0B8F3F09F4CCCEFD
:102850003601BCE06B0E711C682FC3010E94FB01A6
:1028600044E050E0BC01C4010E940D22C5010E9459
:10287000DA0B8F3F51F0682FC3010E94FB0144E047
:1028800050E0BC01CE01019652CFB401C5010E94B7
:102890002B0CAACEF2E03F123CC0BB2009F4A2CE22
:1028A000D7019D968C918B1508F49CCEEB2DF0E012
:1028B0007796EE0FFF1FEE0DFF1DC080D1805601F1
:1028C000B8E0AB0EB11CB801645F7F4FC5010E9438
:1028D0002B0C982EC8010E948305823081F4F801E8
:1028E00080899485998395859A8396859B838C832B
:1028F000BE016F5F7F4FC5010E942B0C982299206B
:1029000009F41ACF81E0D7019C968C933324339439
:1029100013CFB3E03B127DC0BB2009F4FCC0F7012C
:1029200095A59B1508F470CFEB2DF0E07796EE0F90
:10293000FF1FEE0DFF1D60807180D80111969C91E4
:10294000119714962C9114972E8F15962C911597FC
:102950002F8F16962C9128A35701BBE0AB0EB11C0C
:102960002AE1F701238720E1268720E22587858B4E
:1029700094874701F6E18F0E911C6401212C312CC4
:1029800028E0620E711C8AE0281641F1422DB30145
:10299000CE0101960E94C20BCE0101960E943F0516
:1029A0008823D1F0339484E0FE013196D601019062
:1029B0000D928A95E1F794E0C90ED11CA4E03A1279
:1029C0000BC0AE01425E5F4FB501C7010E947E0D94
:1029D0006401312C882311F02394D5CF84E0F601D3
:1029E00011928A95E9F7832D880F880F825FD701AE
:1029F0001B968C931B971D968C911D978F7D1D9612
:102A00008C93AE01425E5F4FB501C7010E947E0DFF
:102A1000FBCEB4E03B1281C0F8012089A801445FDD
:102A20005F4F6B2DC7010E94A00C29833A834B8313
:102A30005C836D837E838F8389819A819EA38DA31E
:102A400072E0372E892B09F4D9C0D80111968C91E8
:102A5000119714969C9114979E8F15969C9115979B
:102A60009F8F16969C9198A33701BBE06B0E711C4B
:102A70009AE1F701938790E1968790E2958792E03B
:102A8000958B84871701F6E12F0E311C6101B12C63
:102A9000A12C1CA28B818A151B0451F14CF1EC81F5
:102AA000FD818A2D0995D6018C934601B2E08B0EEB
:102AB000911C8DA19EA18A0D9B1D0E94E90AF60121
:102AC0008183FCA1FF5FFCA3F83059F4AE01425EA4
:102AD0005F4FB301C7010E947E0D882339F0410189
:102AE0001CA22FEFA21AB20A6401D4CF61011CA26A
:102AF000D6011C9211961C928CA18A5F880FF70157
:102B0000838785858F7D8587AE01425E5F4FB301E8
:102B1000C7010E947E0D312C71C0FEE03F1248C0FB
:102B2000EB2DF0E07796EE0FFF1FEE0DFF1DC0803E
:102B3000D180D80111962C91A8014C5F5F4FB7014D
:102B4000655F7F4FD7011296ED91FC91139785A990
:102B5000F60193851B963C921B9730E11E963C93A1
:102B60001E9732E21D963C931D9736E055963C9396
:102B700055971C962C931C9756969C935697918D1F
:102B800057969C93938D911101C0312CD701589683
:102B90003C92589759968C93599782E01D968C9346
:102BA000C7010E947E0DF60182858E7F82872CCE22
:102BB000F5E03F1226C0D701D896BC92F8012089D3
:102BC000A801445F5F4F6B2DC7010E94A00CD70185
:102BD000D9962C93D997DA963C93DA97DB964C9357
:102BE000DB97DC965C93DC97DD966C93DD97DE9645
:102BF0007C93DE97DF968C9333243394D12CC12CB5
:102C00009BCDB6E03B122CC0F70184A721AD32ADBD
:102C100086A597A52817390779F48281938170E0FA
:102C200060E001960E94680DD701ED91FC9104804F
:102C3000F581E02DC70109958FEFF70180AF8AE09C
:102C4000D8018C9382E013968C93139712968C93F1
:102C500012971A961C92A8014C5F5F4FB801D5CE0F
:102C6000B8E03B1238C0F70180AD8B1519F0D12CBC
:102C7000C12C4CCE81AD92AD892BC9F3F801808176
:102C80008B3008F48BE055EF952E980E5801FCE040
:102C9000AF0EB11C65018C2D8A19891540F7D6013C
:102CA00011968C90D701DE96ED91FC91D6018C9116
:102CB00009958F3F61F0F70161AD72AD680F711D2D
:102CC000898241E050E0CE0101960E940D22F2E09F
:102CD000CF0ED11CE0CF29E0321284CCD80111965E
:102CE0008C9194E1F701938790E196871586158A78
:102CF0008487168A4AE062EF7FE7C70146960E9402
:102D00002905A8014C5F5F4FB701655F7F4F7DCEFE
:102D1000813109F067C0F4E0BF1619F02AECB21255
:102D200029C08AE0D8018C9382E013968C93139784
:102D300012961C9212971A961C92A8014C5F5F4F34
:102D4000B801C7010E947E0DBAECBB120FC08DEA1C
:102D500091E00E94C90488E19CE00FB6F894A89520
:102D6000809360000FBE90936000FFCFC7010E9468
:102D7000100B4ACD332009F441CFF70185A5831507
:102D800008F442CDE32DF0E07796EE0FFF1FEE0D35
:102D9000FF1DC080D180F2E0BF16F1F0FB1550F0AE
:102DA000BB2091F021E0B21231CDF6018285826024
:102DB0008287ACCD83E0B81609F4A8CD90E8B912AB
:102DC00025CDF60182850BC0D6011A968C911A97F3
:102DD0008D7F1A968C939ACDD6011A968C9181FF8D
:102DE00003CC14CD823129F488EB91E00E94C90410
:102DF0003ECF8E3309F073C089E053968C9353977E
:102E000011968C91119754968C93549784E0559613
:102E10008C9355971D968C911D9756968C9356972B
:102E20001C968C911C975796BC92579758963C923B
:102E3000589759968C93599717968C911797898321
:102E400018968C9118978A8319968C918B83BE0162
:102E50006F5F7F4FC80143960E946105D80153966A
:102E6000EC915397E00FF12FF11D1E968D919C91DF
:102E70001F97958B848B53968C9153978E5F5396A7
:102E80008C93DD24D394F70185A58D1508F4EFCE3E
:102E9000ED2DF0E07796EE0FFF1FEE0DFF1D019078
:102EA000F081E02D828581FD18C0D8015D969C914E
:102EB0005D979F7357968C915797898358968C91FD
:102EC00058978A8359968C918B839C83BE016F5F40
:102ED0007F4FCF0108960E94000CD394D4CF80542A
:102EE000823008F07FCB99249394812CD12CC12C73
:102EF00022E0322EF70185A5891538F1E92DF0E0A1
:102F00007796EE0FFF1FEE0DFF1DA080B180D5015B
:102F10001A968C9181FD17C0F80182858F73948178
:102F2000998395819A8396819B838C83BE016F5F81
:102F30007F4FC50108960E94000C882321F08394DE
:102F40006501332433949394D5CFF1E0F81508F458
:102F500055CEF2CB80E022CC8AE0F801808382E07B
:102F6000838312821286B801C7010E947E0D24CC91
:102F7000F2E03F1221CC8AE0D8018C9313963C9268
:102F8000139712961C92129780E81A968C93A801B8
:102F90004C5F5F4FE8CF0C946223CF93DF93EC013B
:102FA0000E94BE04CE01DF91CF910C9462230C9459
:102FB00062230C9462230C9462230C9462230C947D
:102FC00062230C9462230C946223CF93DF93EC0171
:102FD0000E949D04CE01DF91CF910C9462230C944A
:102FE00062230C9462230C9462231F920F920FB6FB
:102FF0000F9211242F933F934F935F936F937F937F
:103000008F939F93AF93BF93EF93FF938DED91E0D9
:103010000E948902FF91EF91BF91AF919F918F9193
:103020007F916F915F914F913F912F910F900FBEC4
:103030000F901F9018951F920F920FB60F921124A8
:103040002F938F939F93EF93FF93E091ED01F09176
:10305000EE018081E091F301F091F40182FD1BC04B
:1030600090818091F6018F5F8F732091F701821715
:1030700041F0E091F601F0E0E352FE4F958F80932E
:10308000F601FF91EF919F918F912F910F900FBEBD
:103090000F901F9018958081F4CF1F920F920FB65A
:1030A0000F9211242F933F938F939F93AF93BF93CE
:1030B0008091A4019091A501A091A601B091A701D2
:1030C0003091A30126E0230F2D3758F50296A11D5C
:1030D000B11D2093A3018093A4019093A501A09317
:1030E000A601B093A70180919F019091A001A091AA
:1030F000A101B091A2010196A11DB11D80939F0174
:103100009093A001A093A101B093A201BF91AF91B0
:103110009F918F913F912F910F900FBE0F901F9015
:10312000189529E8230F0396A11DB11DD2CF1F9238
:103130000F920FB60F9211242F933F934F935F93EB
:103140006F937F938F939F93AF93BF93EF93FF936F
:10315000E0910201F09103010995FF91EF91BF9178
:10316000AF919F918F917F916F915F914F913F911F
:103170002F910F900FBE0F901F9018951F920F92D6
:103180000FB60F9211242F933F934F935F936F933A
:103190007F938F939F93AF93BF93EF93FF93E091B0
:1031A0000001F09101010995FF91EF91BF91AF915D
:1031B0009F918F917F916F915F914F913F912F914F
:1031C0000F900FBE0F901F9018951F920F920FB681
:1031D0000F9211248F930FB6F894A89580916000F8
:1031E000886180936000109260000FBE8F910F90F5
:1031F0000FBE0F901F9018951F920F920FB60F924F
:1032000011242F933F934F935F936F937F938F93EB
:103210009F93AF93BF93CF93DF93EF93FF93CAE74F
:10322000D2E060E089810E9485031092B1006A813A
:103230007B818C819D810E9425226093B30081E077
:103240008E83FF91EF91DF91CF91BF91AF919F91CD
:103250008F917F916F915F914F913F912F910F903F
:103260000FBE0F901F9018951F920F920FB60F92DE
:1032700011240F900FBE0F901F9018951F920F9260
:103280000FB60F9211242F933F934F935F936F9339
:103290007F938F939F93AF93BF93EF93FF93E6E852
:1032A000F2E084818F5F8483CF010E942108FF9127
:1032B000EF91BF91AF919F918F917F916F915F91AE
:1032C0004F913F912F910F900FBE0F901F90189527
:1032D0001F920F920FB60F9211242F933F934F938B
:1032E0005F936F937F938F939F93AF93BF93EF936E
:1032F000FF938BE892E00E942108FF91EF91BF912C
:10330000AF919F918F917F916F915F914F913F917D
:103310002F910F900FBE0F901F9018951F920F9234
:103320000FB60F9211242F933F934F935F936F9398
:103330007F938F939F93AF93BF93CF93EF93FF931D
:1033400099B1C091AA018091DA013091D701292F5A
:10335000209523238923822B20916D00C927C22326
:10336000C8239093AA01CC23C1F1C0FF05C0E0910E
:10337000AB01F091AC010995C1FF05C0E091AD0131
:10338000F091AE010995C2FF05C0E091AF01F09147
:10339000B0010995C3FF05C0E091B101F091B20100
:1033A0000995C4FF05C0E091B301F091B4010995FE
:1033B000C5FF05C0E091B501F091B6010995C6FFC2
:1033C00005C0E091B701F091B8010995C7FF05C0AC
:1033D000E091B901F091BA010995FF91EF91CF9178
:1033E000BF91AF919F918F917F916F915F914F911D
:1033F0003F912F910F900FBE0F901F9018951F9225
:103400000F920FB60F9211242F933F934F935F9318
:103410006F937F938F939F93AF93BF93CF93EF93CC
:10342000FF9396B1C091BB018091DB013091D8012F
:10343000292F209523238923822B20916C00C927D3
:10344000C223C8239093BB01CC2351F1C0FF05C018
:10345000E091BC01F091BD010995C1FF05C0E0916B
:10346000BE01F091BF010995C2FF05C0E091C00106
:10347000F091C1010995C3FF05C0E091C201F0912F
:10348000C3010995C4FF05C0E091C401F091C501D5
:103490000995C5FF05C0E091C601F091C7010995E6
:1034A000FF91EF91CF91BF91AF919F918F917F91BC
:1034B0006F915F914F913F912F910F900FBE0F90A1
:1034C0001F9018951F920F920FB60F9211242F93F1
:1034D0003F934F935F936F937F938F939F93AF939C
:1034E000BF93CF93EF93FF9393B1C091CA018091A3
:1034F000DC013091D901292F209523238923822BA8
:1035000020916B00C927C223C8239093CA01CC2302
:1035100051F1C0FF05C0E091CB01F091CC010995BC
:10352000C1FF05C0E091CD01F091CE010995C2FF28
:1035300005C0E091CF01F091D0010995C3FF05C00E
:10354000E091D101F091D2010995C4FF05C0E0914D
:10355000D301F091D4010995C5FF05C0E091D501D3
:10356000F091D6010995FF91EF91CF91BF91AF9165
:103570009F918F917F916F915F914F913F912F918B
:103580000F900FBE0F901F901895FC01128284E1DE
:1035900091E09183808380910A0190910B01A09129
:1035A0000C01B0910D0183839483A583B6831782A8
:1035B000108681E0818708959F92AF92BF92CF924B
:1035C000DF92EF92FF920F931F93CF93DF931092AE
:1035D000E0011092DF0188EE93E0A0E0B0E080937C
:1035E000E1019093E201A093E301B093E4018CE147
:1035F00091E09093DE018093DD0185EC90E0909363
:10360000EA018093E90184EC90E09093EC018093CF
:10361000EB0180EC90E09093EE018093ED0181EC62
:1036200090E09093F0018093EF0182EC90E0909312
:10363000F2018093F10186EC90E09093F401809385
:10364000F3011092F6011092F7011092F801109216
:10365000F901109281021092850210928402109258
:10366000830210928C0210928B0210928E021092A2
:103670008D02109287021092860210928902109297
:10368000880210928A0210928F0310928E03109279
:103690009103109292031092930328E831E0309343
:1036A0008D0320938C0310929C0310929D03109223
:1036B0009E0310929F0381E0809390031092A303D6
:1036C0001092A2031092A5031092A6031092A703D2
:1036D0003093A1032093A0031092B0031092B10382
:1036E0001092B2031092B3038093A4031092B80314
:1036F0001092B7031092BA031092BB031092BC034E
:103700002EE731E03093B6032093B5031092BD034A
:103710008093B9031092BF031092C3031092C203A7
:103720001092C5031092C6031092C70324E731E03C
:103730003093C1032093C0031092C8038093C40345
:1037400088E08093C9031092CA031092CB031092B1
:10375000CC031092CD031092D0031092CF0310929D
:10376000CE031092D3031092D2031092D103109281
:10377000D4031092D5031092AB021092AA0286EDE8
:1037800092E09093AD028093AC021092AE02109240
:10379000B1021092B0021092AF021092B2021092D7
:1037A000B3021092B4021092B5021092B6021092B7
:1037B000B9021092B8021092B7021092BC02109295
:1037C000BB021092BA021092BD021092BE0280E2B9
:1037D00090E09093D1028093D00226E833E03093BA
:1037E000D3022093D2021092D40224E02093D50277
:1037F0009093D7028093D6028FEF8093E0021092CD
:10380000E2021092E1021092E3021092E50210929D
:10381000E4021092E7021092E60282E591E09093B2
:10382000A9028093A802C8EED2E000E813E08EE37C
:10383000A82E81E0B82E94E3C92E91E0D92E9924C8
:103840009A9428E4E22E21E0F22E198618868A85C1
:103850008E7F8D7F8A871B861D861C861B821A821F
:103860001C821D821E821F82B982A882198A188A30
:103870001A8A1B8A1C8A1D8ADF86CE86DF8BCE8B36
:10388000188E998E1A8E1B8ECE014C960E94C51AE8
:10389000F982E882A6960C171D07B9F628EA32E0ED
:1038A00088EE92E09093D9028093D8028EE093E064
:1038B0009093DB028093DA0284E393E09093DD023D
:1038C0008093DC028AE593E09093DF028093DE022E
:1038D00088E691E09093A9028093A8021092830356
:1038E000109282031092840380E09DEDADE68093F8
:1038F000850390938603A09387038EE591E09093D0
:10390000810380938003309389032093880310926E
:1039100092021092910210929302109294021092CD
:1039200095021092960280919702887F816088604C
:10393000809397021092980210929E0210929D021C
:1039400010929F021092A0021092A1021092A20265
:103950008EE291E090939C0280939B028FE892E02C
:103960009093A4028093A30282E991E09093900245
:1039700080938F023093A7022093A6028CE291E0FD
:1039800090939A0280939902DF91CF911F910F91AA
:10399000FF90EF90DF90CF90BF90AF909F900895F1
:1039A000CF93DF93CDB7DEB728970FB6F894DEBF7D
:1039B0000FBECDBF789484B5826084BD84B581602C
:1039C00084BD85B5826085BD85B5816085BD8091EA
:1039D0006E00816080936E00109281008091810062
:1039E000826080938100809181008160809381005A
:1039F000809180008160809380008091B10084601C
:103A00008093B1008091B00081608093B00080917C
:103A10007A00846080937A0080917A00826080933B
:103A20007A0080917A008E7F80937A0080917A006C
:103A3000806880937A001092C100E091ED01F091CE
:103A4000EE0182E08083E091E901F091EA011082C9
:103A5000E091EB01F091EC0180E180831092F5019F
:103A6000E091F101F091F20186E08083E091EF01B5
:103A7000F091F001808180618083E091EF01F0910D
:103A8000F001808188608083E091EF01F091F00186
:103A9000808180688083E091EF01F091F001808166
:103AA0008F7D80838EE393E00E94C9048091D602CB
:103AB0009091D702069620E048EA52E03091D50274
:103AC000231788F4E22FF0E0EE0FFF1FE852FD4FBE
:103AD0000190F081E02D2F5F5187408723879587E4
:103AE0008487C796EBCF88EE92E00E94C70460916E
:103AF000D0027091D10290E080E04AE00E947F08FD
:103B000084EE92E00E94C704E091D502F0E0EE0F4F
:103B1000FF1FEA52FD4F0190F081E02D648575850D
:103B2000695C7F4F90E080E04AE00E947F0881EE70
:103B300092E00E94C70460E090E080E00E941705D8
:103B40008C019BEDE92E92E0F92E21EEC22E22E0AF
:103B5000D22EF7016491C8010E9417058C01FFEF76
:103B6000EF1AFF0ACE14DF04A1F7EE24E39480914C
:103B7000D5028E1510F1F12C8F2D0E947704682F3D
:103B8000C8010E9417058C01F39485E0F812F4CF68
:103B900080E00E94F901682FC8010E9417058C017E
:103BA00080E00E946F04682FC8010E9417056AE038
:103BB0000E9417058C01E394DACF44E050E070E0F6
:103BC00060E0CE0105960E94FD2130E020E02E6FDE
:103BD0003A6C09831A832B833C836D817E818F81AC
:103BE0009885061717072807390709F49BC00E9414
:103BF0004C0989EC92E00E94C7048CEC92E00E9490
:103C0000C70469817A818B819C810E944C0989EC6F
:103C100092E00E94C70444E050E070E060E0CE0112
:103C200001960E940D2266E070E08091D60290918C
:103C3000D7020E94BC0961E089E00E949C0966E00D
:103C400084E10E949C0961E080E10E949C0910E0EF
:103C500004E6F02E8091D502181708F063C0E12F1A
:103C6000F0E0EE0FFF1FE852FD4FC080D18067E308
:103C700070E0D6011C968D919C910E94BC09F601C2
:103C8000848595859A83898365E070E00E94BC09EC
:103C900080E20E9409058F3F41F006E020EC41E000
:103CA000682FCE0101960E948A0B80E20E940905CE
:103CB0008F3F41F004E020E342E0682FCE010196FF
:103CC0000E948A0B80E20E9409058F3F41F002E0CA
:103CD0002CE043E0682FCE0101960E948A0B82E21D
:103CE0000E9409058F3F59F069817A81680F711D23
:103CF000FD8241E050E0CE0105960E940D2280E356
:103D00000E9409058F3F61F069817A81680F711DFA
:103D100086E08D8341E050E0CE0105960E940D22A1
:103D20001F5F98CF8AE893E09093AB028093AA023A
:103D30001B821A821982CE0101960E943A0585E003
:103D400080939E0361E00E94B3038CE893E00E949D
:103D50003E0484E08093B20361E00E94B30380EAF2
:103D600093E00E943E04E8988AE092E0909301017B
:103D7000809300018EEB93E09093A9018093A801BA
:103D800081EC92E00E94C70460E082E00E94B303ED
:103D90008FEB92E00E94C90461E08AE00E94B303C5
:103DA00061E08BE00E94B30360E08CE00E94B3030B
:103DB00061E08DE00E94B30380E58CBD61E08AE0A4
:103DC0000E94850361E08DE00E94850360E08BE046
:103DD0000E9485030E94FF030E94F9030E94EF03E3
:103DE000F5E8FA95F1F700000E94FF030E94F9033D
:103DF00080E30E94F3030E94F9030E94EF030BE8A3
:103E000012E0FF24F394F80131966491F801849153
:103E100043E00E94DF09811101C0F12C0E5F1F4FAA
:103E2000F2E00F3B1F0779F78EE792E00E94C7048C
:103E300060EC81E30E941B040E94CD0885E693E0BC
:103E40000E94C70483E30E9403048FEA93EB019767
:103E5000F1F700C0000043E060EC8EE30E94DF0950
:103E600085E792E00E94C904FF2059F00E94FF03F9
:103E70000E94F9030E94EF030E94120484E30E944F
:103E8000030484E694E09093010180930001809103
:103E900069008C7F826080936900E89A80E180935A
:103EA000810010928000109285001092840080E4BE
:103EB0009CE9909387008093860081E18093810044
:103EC00080916F00816080936F0066E070E0F11078
:103ED00002C068E070E08BE893E00E94680D8B817F
:103EE00090E001962AE0289F8001299F100D11245F
:103EF00080EC93E00E94F10624E630E0D8010E94B5
:103F0000AE2228EE33E040E050E00E947D22209374
:103F1000C5033093C6034093C70381E08093C80371
:103F200060EC73E08BE892E00E94CC058091D002B7
:103F3000ACEFEA2EE80E855090E004960E94E90A64
:103F4000D82E00E01EE5AE2DA150BB0B7D01802FC9
:103F500090E08E159F0534F404960E94E90A182714
:103F60000F5FF5CF1D112BC084E090E00E94E90A9D
:103F7000182F85E090E00E94E90A082F80EA810F5F
:103F80008B30E8F483E692E00E94C704812F0E9400
:103F9000CD08802F0E94CD0885E693E00E94C704DB
:103FA00043E061E28DE00E94DF0943E0612F8EE093
:103FB0000E94DF0943E0602F8FE00E94DF0988E064
:103FC0008093980262E00E94B303E2E3F3E08491FD
:103FD000EEE1F3E09491923009F0AEC02091DC0163
:103FE000282B2093DC012091D901282B2093D90183
:103FF000EAE0F3E0A491923009F0ACC0B0E0AA0F7F
:10400000BB1FA553BE4F22EC37E02D933C93ECEF42
:10401000F2E0A591B4919C919093CA012BE630E017
:104020003093C9012093C8019091680091609093EA
:104030006800A091C801B091C901EC918E2B8C93BE
:10404000E091D802F091D902C0901401D0901501EE
:10405000E0901601F0901701C78ED0A2E1A2F2A263
:1040600089E083A387E084A3128ECF010E94850498
:10407000E091DA02F091DB02C78ED0A2E1A2F2A2B7
:1040800086E083A383E084A3128ECF010E9485047F
:10409000E091DC02F091DD02C78ED0A2E1A2F2A293
:1040A0008EE083A38FE084A3128ECF010E9485044B
:1040B000E091DE02F091DF02C78ED0A2E1A2F2A26F
:1040C00080E183A381E184A3128ECF010E94850445
:1040D00081E08093D40288EA92E00E943D0B9091A7
:1040E000D50281E0981708F06EC020E0E22E20E0B3
:1040F000F22E3EE0B32E40E1A42E52E2952E66E071
:10410000862EC12C8DE892E00E94CC06FC0100971F
:1041100009F45BC0029709F458C022812D7F2283E5
:10412000DC01ED91FC910190F081E02D6BE872E0F3
:104130000995CC24C394E6CF933009F043C1209174
:10414000DB01282B2093DB012091D801282B209321
:10415000D8014ECF9330D1F4B0E0AA0FBB1FA454C6
:10416000BE4F22EC37E02D933C93EEEFF2E0A591A9
:10417000B4919C919093BB012CE630E03093C9013F
:104180002093C80190916800926051CF943009F05B
:1041900050CFB0E0AA0FBB1FA555BE4F22EC37E0B1
:1041A0002D933C93E0E0F3E0A591B4919C91909322
:1041B000AA012DE630E03093C9012093C801909107
:1041C0006800946034CF8F5F8DCF8091AA02909168
:1041D000AB02FC0127AD22FD56C080E0DD24D39464
:1041E0009091D5029D1508F46FC0ED2DF0E0EE0F13
:1041F000FF1FEA52FD4F00811181D8011A969C9150
:1042000090FB662460F890FF3CC07090AE027394FF
:104210007092AE026091AC027091AD02CE01019637
:104220000E94660BE091AA02F091AB0295A9F801F9
:104230008385B092B302A092B6029092B5028092AA
:10424000BD027092B4028093BE02818D8093BF0242
:10425000838D8823B9F18EE08093C0029093C102D0
:10426000AE014F5F5F4F63EB72E088EA92E00E941D
:104270007E0DD8011A968C911A978E7F1A968C9380
:10428000862DD394ADCF63EB72E0C4960E94280ACA
:104290008A3008F4A2CF1B821A821982CE010196BD
:1042A0000E943A05BE016F5F7F4F87EB92E00E944C
:1042B0004E05811192CF63EB72E088EA92E00E9492
:1042C00068128CCF80E0C8CFC1106AC0811168C06D
:1042D0008091BD03811170C08DED91E00E941303A8
:1042E0008091C00085FD06C08091C00080648093ED
:1042F000C000F6CF8091C00086FFFCCF9091B10046
:104300008091B1008B7F8093B1008091B1008D7F4F
:104310008093B1008091B1008E7F8093B100809135
:10432000640080648093640080917A008F7780932A
:104330007A008091640081608093640080916400C1
:104340008062809364008091640080688093640040
:1043500083B7817F83BFF89483B7816083BF7894EC
:10436000889583B78E7F83BF7894809164008E7F19
:104370008093640080917A00806880937A009093A3
:10438000B100809164008F7B809364008091640011
:104390008F7D80936400809164008F7780936400A8
:1043A000E114F10409F4ADCE0E947502882309F4EA
:1043B000A8CE0E940000A5CE61E08EEB93E00E94A3
:1043C0004804EECF943009F013CE2091DA01282B67
:1043D0002093DA012091D701282B2093D70108CE12
:1043E00088EA92E00C94BE04FB01DC0102C0059057
:1043F0000D9241505040D8F70895DC01CB01FC01EB
:10440000F999FECF06C0F2BDE1BDF89A319600B42D
:104410000D9241505040B8F70895DC01CB0103C024
:104420002D910E94182241505040D0F70895262F18
:10443000F999FECF1FBA92BD81BD20BD0FB6F89489
:10444000FA9AF99A0FBE019608950E945C2288F0AC
:104450009F5798F0B92F9927B751B0F0E1F0660F48
:10446000771F881F991F1AF0BA95C9F714C0B13089
:1044700091F00E947622B1E008950C947622672F85
:10448000782F8827B85F39F0B93FCCF386957795B8
:104490006795B395D9F73EF49095809570956195A1
:1044A0007F4F8F4F9F4F089557FD9058440F551FD2
:1044B00059F05F3F71F04795880F97FB991F61F0A6
:1044C0009F3F79F087950895121613061406551F1D
:1044D000F2CF4695F1DF08C0161617061806991F89
:1044E000F1CF86957105610508940895E894BB277E
:1044F00066277727CB0197F90895A1E21A2EAA1B08
:10450000BB1BFD010DC0AA1FBB1FEE1FFF1FA21783
:10451000B307E407F50720F0A21BB30BE40BF50B80
:10452000661F771F881F991F1A9469F76095709509
:10453000809590959B01AC01BD01CF010895A29F8C
:10454000B001B39FC001A39F700D811D1124911D67
:10455000B29F700D811D1124911D08950E949F220C
:10456000B7FF0895821B930B08950E949F22A59F79
:10457000900DB49F900DA49F800D911D112408955E
:10458000EE0FFF1F0590F491E02D09940F931F93F8
:10459000CF93DF938230910510F482E090E0E091B8
:1045A000EA03F091EB0330E020E0B0E0A0E03097C8
:1045B00099F42115310509F44AC0281B390B243020
:1045C0003105D8F58A819B816115710589F1FB015F
:1045D00093838283FE0111C0408151810281138146
:1045E00048175907E0F04817590799F4109761F0F8
:1045F00012960C93129713961C933296CF01DF916B
:10460000CF911F910F9108950093EA031093EB034C
:10461000F4CF2115310551F04217530738F0A901A5
:10462000DB019A01BD01DF01F801C1CFEF01F9CF34
:104630009093EB038093EA03CDCFFE01E20FF31FCB
:10464000819391932250310939832883D7CF2091C8
:10465000E8033091E903232B41F4209106013091C6
:1046600007013093E9032093E8032091040130917E
:1046700005012115310541F42DB73EB740910801E0
:1046800050910901241B350BE091E803F091E903F7
:10469000E217F307A0F42E1B3F0B2817390778F019
:1046A000AC014E5F5F4F2417350748F04E0F5F1F78
:1046B0005093E9034093E803819391939FCFF0E0F7
:1046C000E0E09CCFCF93DF930097E9F0FC013297B5
:1046D00013821282A091EA03B091EB03ED0130E066
:1046E00020E01097A1F420813181820F931F209147
:1046F000E8033091E9032817390709F061C0F09306
:10470000E903E093E803DF91CF910895EA01CE1722
:10471000DF07E8F54A815B819E0141155105B1F73C
:10472000E901FB83EA8349915991C40FD51FEC1726
:10473000FD0761F4808191810296840F951FE90144
:1047400099838883828193819B838A83F0E0E0E070
:1047500012968D919C9113970097B9F52D913C91EC
:104760001197CD010296820F931F2091E80330919B
:10477000E9032817390739F6309751F51092EB0302
:104780001092EA03B093E903A093E803BCCFD3836C
:10479000C28340815181840F951FC817D90761F4E6
:1047A0004E5F5F4F88819981480F591F5183408325
:1047B0008A819B81938382832115310509F0B0CFD3
:1047C000F093EB03E093EA039ECFFD01DC01C0CF41
:1047D00013821282D7CFFB01DC0104C08D910190BE
:1047E000801921F441505040C8F7881B990B089557
:1047F000FB01DC0102C001900D9241505040D8F7FE
:10480000089511E0CEECD1E004C0FE010E94C02268
:0C4810002196CF3CD107C9F7F894FFCFE8
:10481C000A020A020000EC038000030302010900F3
:10482C00000000000103030200000000AB020B02B9
:10483C0038021303690247025B02000000006B0799
:10484C000000000008104704D717000000001D11DD
:10485C008104D917000000001D119804DD17000019
:10486C0000009D04E5179A046812000000003E0643
:10487C009C04E31700000000BE04CD173D0B68122A
:10488C00000000003104C504EF17000000003104E3
:10489C00C504F31700000000040DC604F117000056
:0A48AC00000065063404CB17A50FC9
:00000001FF
