:100000000C9474010C94430B0C941C0B0C949C01E9
:100010000C949C010C949C010C946A0B0C94810B25
:100020000C949C010C94C30B0C949C010C949C01AB
:100030000C949C010C94ED0B0C949C010C949C0171
:100040000C947A0A0C949C010C94EA0A0C94C40A4D
:100050000C949C010C94B90B0C949C010C949C0185
:100060000C949C010C949C0100407A10F35A00A05F
:10007000724E18090010A5D4E80000E87648170071
:1000800000E40B54020000CA9A3B000000E1F505B1
:10009000000080969800000040420F000000A086FB
:1000A00001000000102700000000E803000000002D
:1000B0006400000000000A000000000001000000D1
:1000C00000002C76D888DC674F0823DFC1DFAE59EB
:1000D000E1B1B796E5E3E453C63AE651997696E87E
:1000E000E6C28426EB898C9B62ED407C6FFCEFBC02
:1000F0009C9F40F2BAA56FA5F490055A2AF75C932D
:100100006B6CF9676DC11BFCE0E40D47FEF520E662
:10011000B500D0ED902E0300943577050080841E45
:10012000080000204E0A000000C80C333333330FA0
:10013000986E12831141EF8D2114893BE65516CF3D
:10014000FEE6DB18D1844B381BF77C1D901DA4BB49
:10015000E424203284725E228100C9F124ECA1E5FE
:100160003D273000303000303030000D0A000D0ADD
:100170000020726561643A200020657870656374C0
:1001800065643A20004572726F7220617420000D20
:100190000A000000000023002600290000000000E3
:1001A000240027002A0000000000250028002B0062
:1001B000040404040404040402020202020203030D
:1001C0000303030301020408102040800102040815
:1001D00010200102040810200000000800020100A5
:1001E0000003040700000000000000000000000001
:1001F00000000000021405050000000002010A01D1
:1002000000000000000000000000000000000000EE
:1002100000000000060305010101010A06010101B9
:100220000501050A0206020200000000050108049B
:10023000040404000D0A00202D2072656164790019
:1002400043432056657273696F6E3A2000002E0298
:1002500006030D04E905CA070C0B060D210E650FF8
:100260006A10C81193120315341703181819161BB6
:10027000431E2F1F65207823E9242A251F26113EBF
:10028000033100434320696E69740041736B536905
:100290006E2B2B2076352E302E322028446563209D
:1002A000323320323032322031363A30373A33343A
:1002B00029000D0A005061636B657420746F6F2014
:1002C0006269673A2000435243204661696C656465
:1002D000000101014672657154657374303000008D
:1002E000001041000000130C11241FBECFEFD8E016
:1002F000DEBFCDBF12E0A0E0B1E0ECEFF9E202C05A
:1003000005900D92A038B107D9F723E0A0E8B2E03C
:1003100001C01D92AD3DB207E1F711E0C4E7D1E0A5
:1003200004C02197FE010E94C813C337D107C9F743
:100330000E94D90C0C94FC140C9400000895AF9208
:10034000BF92CF92DF92EF92FF920F931F93CF93C2
:10035000DF936C017B018B01040F151FEB015E0124
:10036000AE18BF08C017D10759F06991D601ED91B9
:10037000FC910190F081E02DC6010995892B79F758
:10038000C501DF91CF911F910F91FF90EF90DF900A
:10039000CF90BF90AF900895FC01538D448D252FD1
:1003A00030E0842F90E0821B930B541710F0CF960F
:1003B000089501970895FC01918D828D981761F041
:1003C000A28DAE0FBF2FB11D5D968C91928D9F5F58
:1003D0009F73928F90E008958FEF9FEF0895FC0137
:1003E000918D828D981731F0828DE80FF11D858DEA
:1003F00090E008958FEF9FEF0895FC01918D228D7D
:10040000892F90E0805C9F4F821B91098F73992701
:10041000089581E992E00E94FD0121E0892B09F411
:1004200020E0822F089580E090E0892B29F00E943F
:10043000090281110C9400000895FC01A48DA80FFD
:10044000B92FB11DA35ABF4F2C91848D90E0019616
:100450008F739927848FA689B7892C93A089B18936
:100460008C91837080648C93938D848D981306C0D7
:100470000288F389E02D80818F7D80830895EF923B
:10048000FF920F931F93CF93DF93EC0181E0888F4E
:100490009B8D8C8D98131AC0E889F989808185FF1E
:1004A00015C09FB7F894EE89FF896083E889F989C0
:1004B00080818370806480839FBF81E090E0DF91C2
:1004C000CF911F910F91FF90EF900895F62E0B8D15
:1004D00010E00F5F1F4F0F731127E02E8C8D8E11D0
:1004E0000CC00FB607FCFACFE889F989808185FF37
:1004F000F5CFCE010E941D02F1CFEB8DEC0FFD2F49
:10050000F11DE35AFF4FF0829FB7F8940B8FEA89F1
:10051000FB8980818062CFCF0F931F93CF93DF93AE
:100520008C01D0E0C0E0F801EC0FFD1F6491662360
:1005300041F081E992E00E943F02892B11F021965F
:10054000F2CFCE01DF91CF911F910F910895CF93FC
:10055000DF93EC01888D8823B9F0AA89BB89E889EB
:10056000F9898C9185FD03C0808186FD0DC00FB691
:1005700007FCF7CF8C9185FFF2CF808185FFEDCF0F
:10058000CE010E941D02E9CFDF91CF910895833003
:1005900081F028F4813099F08230A9F008958730F5
:1005A000A9F08830C9F08430B1F4809180008F7D4B
:1005B00003C0809180008F7780938000089584B578
:1005C0008F7784BD089584B58F7DFBCF8091B00077
:1005D0008F778093B00008958091B0008F7DF9CF20
:1005E0001F93CF93DF93282F30E0F901E852FE4F9D
:1005F0008491F901EC53FE4FD491F901E055FE4F7F
:10060000C491CC23A9F0162F81110E94C702EC2FB0
:10061000F0E0EE0FFF1FEA55FE4FA591B4918FB7A2
:10062000F894EC91111108C0D095DE23DC938FBFB4
:10063000DF91CF911F910895DE2BF8CFCF93DF93F9
:1006400090E0FC01EC53FE4F249180559E4FFC013D
:1006500084918823D1F090E0880F991FFC01E45623
:10066000FE4FA591B491FC01EA55FE4FC591D4917E
:1006700061110EC09FB7F8948C91E22FE0958E2304
:100680008C932881E223E8839FBFDF91CF91089567
:100690008FB7F894EC91E22BEC938FBFF6CF411516
:1006A000510529F4EAE7F0E080818F7780836A3092
:1006B0007105B9F0CB01880F991F880F991F8072BF
:1006C00067706860682B88E10FB6F894A8958093EE
:1006D00060000FBE60936000E0E6F0E0808180641F
:1006E0008083232BD9F483B7817F846083BFF89400
:1006F00083B7816083BF85B7806685BF8F7D85BFE7
:100700007894889583B78E7F83BF7894452B29F49E
:10071000EAE7F0E0808180688083089583B7817F75
:10072000846083BFF89483B7816083BF7894889591
:1007300083B78E7F83BF7894E9CF61E08AE00C9421
:10074000F0028EBD0DB407FEFDCF8EB50895CF9299
:10075000DF92EF92FF920F931F93CF93DF93C4EE3C
:10076000D1E000ED11E09CEBE92E91E0F92EFE01C5
:100770008491F801C490F701D490DD20A1F081119B
:100780000E94C702ED2DF0E0EE0FFF1FEE56FE4F68
:10079000A591B4918C91C82281E090E011F490E091
:1007A00080E0892B21F7DF91CF911F910F91FF906E
:1007B000EF90DF90CF90089560E08AE00C94F00213
:1007C000CF93C82F0E94DC030E94A7038C2F0E94A6
:1007D000A103C82F0E949D038C2FCF91089586E31B
:1007E0000E94E0038DE30E94E0038AE30C94E0039F
:1007F000CF93DF93D82FC62F0E94DC030E94A7035C
:100800008D2F8C2B0E94A10380E00E94A103C82F92
:100810000E949D038C2FDF91CF910895EFE6F0E0C9
:100820008081816080830895FC0110860895089579
:10083000FC018289938961E0911101C060E00C9410
:10084000F002FC018289938960E0911101C061E0AE
:100850000C94F002E0918602F0918702838581FD7D
:1008600003C083858C608387089580E00895089590
:10087000089508950C948C020E943A048FE891E048
:100880000C943A04089508952FB7F894FC018081E0
:1008900091812FBF0895FF920F931F93CF93DF9302
:1008A000EC018B01FFB6F8940E9444049C019FB7B1
:1008B000F894F801318320839FBF8FB7F894198390
:1008C00008838FBFFFBEDF91CF911F910F91FF90E3
:1008D00008956F927F928F92DF92EF92FF920F9323
:1008E0001F93CF93DF937B0122E0E20EF11CDB012B
:1008F00015962D913D914C91232B242B09F44DC03D
:10090000EB01DFB6F8942C8122602C838C010E94CD
:100910004404009709F43EC0FC013297A1F06580C1
:10092000768087802D813E814F81CF0102966216AD
:100930007306840650F42619370948092D833E832F
:100940004F838C01E4CF90E080E02FB7F8949B8335
:100950008A832FBF8FB7F894D801ED92FC928FBF96
:10096000309761F085819681A7812D813E814F81ED
:10097000821B930BA40B85839683A783DFBEDF9135
:10098000CF911F910F91FF90EF90DF908F907F900C
:100990006F900895F0E0E0E0D8CFB7010296DF91C4
:1009A000CF911F910F91FF90EF90DF908F907F90EC
:1009B0006F900C944B040F931F93CF93DF93EC0134
:1009C0008B01E88981E08E0F888BEC0FFD2FF11DE4
:1009D000228530E0A4E6B0E00E94B2132AE030E0C5
:1009E00040E050E00E9490132D833E834F83BE0170
:1009F000C8010E94690488898170DF91CF911F919D
:100A00000F910895EF92FF920F931F93CF93DF936F
:100A1000EC017B01E0914C03F0914D038285811143
:100A200013C08F010E5F1F4F82E0828781E08387B2
:100A300084871586138A128A6CE373E0C8010E94CA
:100A4000DB04C8010E94210480918A0390918B03EA
:100A5000039781F084E690E0A0E08D839E83AF83CE
:100A6000BE01C701DF91CF911F910F91FF90EF90D1
:100A70000C946904DF91CF911F910F91FF90EF903B
:100A80000895EF92FF920F931F93CF93DF93EC01A2
:100A9000FFB6F8940E9444048C01892B71F0EFB6E4
:100AA000F894CE010E9444040E9444049C019FB724
:100AB000F894398328839FBFEFBEFFBEC801DF9142
:100AC000CF911F910F91FF90EF900895BF92CF9219
:100AD000DF92EF92FF920F931F93CF93DF93EC017E
:100AE000FFB6F8948C818D7F8C838CE393E00E9419
:100AF00044040097C9F19C01225031098CE393E032
:100B00002115310589F189010E5F1F4FC217D307E7
:100B100009F50E944105C8010E944404009779F03C
:100B2000FC01329761F085819681A7812D813E81FC
:100B30004F81820F931FA41F85839683A783FFBED7
:100B4000DF91CF911F910F91FF90EF90DF90CF90A9
:100B5000BF900895C8010E944404009729F09C01A9
:100B600022503109C801CCCF6E0182E0C80ED11CE1
:100B7000EFB6F894BFB6F8948EE393E00E94440475
:100B8000EC012EE333E0209779F010E000E0CC1682
:100B9000DD0609F48901CE010E9444049E0101157D
:100BA000110521F4EC01EFCF10E000E0BFBE01150C
:100BB000110511F4EFBEC3CFC8010E944105FACF61
:100BC000CF92DF92FF920F931F93CF93DF938C010D
:100BD000FFB6F8940E944404009769F1EC01229753
:100BE00051F18D819E81AF810197A1098D839E83F3
:100BF000AF83680182E0C80ED11C8D819E81AF81D8
:100C0000892B8A2BC1F4C8010E9441058C8180FF89
:100C10001CC08D7F8C83E881F9810190F081E02DEB
:100C2000B801CE010995C8010E944404009719F04B
:100C3000EC01229711F7FFBEC801DF91CF911F9100
:100C40000F91FF90DF90CF900895BE016E5F7F4FB0
:100C5000C6010E944B04E7CF8F929F92AF92BF9242
:100C60000F931F93CF93DF93CDB7DEB7A1970FB646
:100C7000F894DEBF0FBECDBF19A2423008F44AE09F
:100C80008E010F5D1F4F842E912CB12CA12CA5013C
:100C900094010E949013E62FB901CA01EA3044F58D
:100CA000E05DD801EE938D01232B242B252B79F7C2
:100CB00090E080E0109769F0FD0101900020E9F7D5
:100CC0003197AF014A1B5B0BBD0181E992E00E94A5
:100CD0009F01A1960FB6F894DEBF0FBECDBFDF9186
:100CE000CF911F910F91BF90AF909F908F900895DB
:100CF000E95CD7CFFC0101900020E9F73197AF0103
:100D0000481B590BBC0181E992E00C949F010E94A1
:100D10007A068EE691E00C943A04CF93C82F803186
:100D200028F460E381E992E00E943F026C2F70E0BA
:100D300090E080E040E1CF910C942C060F931F933C
:100D4000CF93DF93EC018B01FB0184810E948D0620
:100D5000F80185810E948D06F80186810E948D062A
:100D60008EE792E00E947A06EA81FB819FAD81A125
:100D7000891708F4892F8FAF8EAD8F5F8EAF8823D0
:100D800049F0E881F9810084F185E02D6CE373E09E
:100D9000CE01099581E0DF91CF911F910F910895C8
:100DA000CF93DF93EC0187E691E0C031D10560F08D
:100DB00084E691E0CF3FD10539F030F0C11580E1F4
:100DC000D80720F482E691E00E948C02BE0190E0F8
:100DD00080E040E1DF91CF910C942C06EF92FF92DE
:100DE0000F931F93CF93DF937C01D62FC42F122F25
:100DF0000E94DC030E94A7038D2F0E94A1038C2F69
:100E00000E94A1030E949D0360E88D2F0E94F803B9
:100E1000082F81E0C01779F01123A1F02FEF210FE7
:100E20004C2F6D2FC7010E94EE06EFECF7E03197D3
:100E3000F1F700C00000DF91CF911F910F91FF905B
:100E4000EF90089585E891E00E943A048D2F0E946A
:100E50008D0689E791E00E943A048C2F0E948D064E
:100E600081E791E00E943A04802F0E948D0684E37E
:100E700092E00E943A0480E0DECF1F93CF93DF938D
:100E8000EC011FB7F89498898885981760F4CE0113
:100E90000E94DB041FBF8823C1F0CE01DF91CF91F8
:100EA0001F910C942104188A9985992381F38989CB
:100EB0008F5F898B891758F348E050E06CEE71E042
:100EC000CE0108960E94C70F1FBFCE01DF91CF91C0
:100ED0001F910C9418040F931F93CF93DF93CDB7FA
:100EE000DEB760970FB6F894DEBF0FBECDBF0E948D
:100EF000951220E030E040ED51E40E94FB1220E02A
:100F000030E040E857E30E94FB128E010F5F1F4F55
:100F100023E048E00E94A90FC8010E947A0688E5F4
:100F200091E00E947A0660960FB6F894DEBF0FBE7D
:100F3000CDBFDF91CF911F910F910895EF92FF9256
:100F40000F931F93CF93DF93EC017B018C01025D24
:100F50001F4FC8010E946605F9AEE8AE1FAE1EAE77
:100F60008DE591E00E947A0688AD99AD0E94D00689
:100F700068AD79AD90E080E081960E946B078FEFBD
:100F800091E00E947A068A819B8123E041E26DE034
:100F900080960E94EE0649AD8A819B8123E06EE037
:100FA00080960E94EE068A819B8123E048AD6FE027
:100FB00080960E94EE0680E797E1A0E08BAB9CABA9
:100FC000ADABB8018CE393E0DF91CF911F910F910E
:100FD000FF90EF900C9469040C946A140C946A14BA
:100FE0000C946A140C946A140C946A140C946A1489
:100FF000AF92BF92CF92DF92EF92FF920F931F9327
:10100000CF93DF931F92CDB7DEB78C0187E691E0D7
:101010000E947A06F80166AD70E090E080E04AE058
:101020000E942C06F80186AD811127C089E691E067
:101030000E9487067801F0E4EF0EF11CF701808131
:101040009181009709F077C0F80180AD91AD26AD90
:10105000222311F195AF84AF93AF82AF81E090E08E
:10106000F7019183808383E791E00E948706F8016E
:1010700060AD71AD605F7F4F23C08AE691E00E9452
:101080007A06F80167AD70E090E080E04AE00E94E7
:101090002C068FE691E0CCCF8A36F2E69F0740F42B
:1010A00023E030E0F7013183208364E27BEC06C06B
:1010B00064ED7AEC8B36F5E69F07B8F3681B790B85
:1010C000C8010E949E07F70180819181039739F53D
:1010D00081EA91E00E947A06F80182AD93AD0E9408
:1010E000D0068DEA91E00E947A06F80184AD95ADB4
:1010F0000E94D0068BE691E00E943A04F80122ADEE
:1011000033AD84AD95AD2817390709F041C02A36B3
:10111000F5E63F07E9F585EB91E00E947A060F902E
:10112000DF91CF911F910F91FF90EF90DF90CF90C3
:10113000BF90AF90089581309105C1F4F80186AD5C
:10114000882329F060AD71AD75AF64AF93CF82E0B5
:1011500090E0F701918380838AE891E00E948706FE
:10116000F80162AD73AD60517109AACF029709F021
:10117000AACFF80186AD882329F060AD71AD73AFB9
:1011800062AFF1CF83E090E0F701918380839BCF42
:10119000821B930B96958795820F931FF80191AF51
:1011A00080AF83ED91E00E947A06F80181AD0E9444
:1011B0008D06F80180AD0E948D06F80160AD71AD1D
:1011C00090E080E081960E946B0789E691E00E94A2
:1011D000870689EE91E00E947A06F80181AD0E94AF
:1011E0008D06F80180AD0E948D06F801C0A4FCEFC9
:1011F000CF0E198241E050E064E070E0CE0101962C
:101200000E940712F980198241E050E065E070E029
:10121000CE0101960E940712E980D12CB12CA12C9D
:10122000AC14BD0470F41982B5016C5F7F4F41E0CE
:1012300050E0CE0101960E9417122FEFA21AB20AB7
:10124000EFCF8EE792E00E947A06F80181AD8983A4
:1012500041E050E064E070E0CE0101960E94171278
:101260008EE792E00E947A06F80180AD898341E022
:1012700050E065E070E0CE0101960E9417128EE703
:1012800092E00E947A06A12C5EE5B52EF1E0CF1A1D
:10129000D1086A2D70E06C157D056CF419826C5FC5
:1012A0007F4F41E050E0CE0101960E9407128981F4
:1012B000B826A394EECFB982B60177276C5F7F4F33
:1012C00041E050E0CE0101960E94171282E092E0C8
:1012D0000E94870680EA8F0D8B30C8F48AE092E086
:1012E0000E947A068F2D0E948D068E2D0E948D06FB
:1012F0006F2D70E0762F6627072E000C880B990B58
:1013000081966E0D711D811D911D0E946B0785E2F6
:1013100092E00E94870681E992E00E94A702F8010C
:1013200002811381F801878D8111CEC081E992E09D
:101330000E94A7028091C00085FD06C08091C00078
:1013400080648093C000F6CF8091C00086FFFCCF00
:1013500080916F008E7F80936F008CE393E00E94FA
:101360004404009709F48CC0FC01329709F488C04A
:10137000C580D680E780F12C8EE393E00E94440480
:10138000892B09F07AC0F1E0CF16D104E104F10411
:1013900009F473C0F80183A580FD18C0BB24BA947A
:1013A00086E30E94E003BA94807731F0FAE1FA957F
:1013B000F1F700C0B110F4CF8AE30E94E00389E3A3
:1013C0000E94E003F80183A5816083A7F1E2CF16B4
:1013D000F3E0DF06E104F10408F056C025E6C2168A
:1013E000D104E104F10408F058C04DE0C416D10462
:1013F000E104F10408F059C082E0C816D104E10408
:10140000F10408F05AC06AE070E0C12CD12C7601DA
:1014100030E020E050E040E082E892E00E944F039C
:101420008CE393E00E944404009719F1FC01329789
:1014300001F121E0C21AD108E108F1088581968105
:10144000A781AC016A2F70E041505109610971090F
:101450004C155D056E057F0530F46C01EA2E41E008
:10146000C41AD108E1088C199D09AE0985839683B9
:10147000A7838CE393E00E94E0050E940E044FCE08
:10148000C12CD12C760178CF69E070E030E2C32E18
:1014900033E0D32EE12CF12CBBCF66E070E024E6E4
:1014A000C22ED12CE12CF12CB3CF63E070E09CE094
:1014B000C92ED12CE12CF12CABCF70E060E0C12C17
:1014C000D12C7601C394A4CF83A580FF28CE0E949F
:1014D000DC030E94A7030E949D030E94EF0384E3A4
:1014E0000E94E003F80183A58E7F83A718CE8E9714
:1014F0000C94F8071F920F920FB60F9211242F939E
:101500003F938F939F93AF93BF9380918D02909160
:101510008E02A0918F02B091900230918C0226E051
:10152000230F2D3758F50296A11DB11D20938C0273
:1015300080938D0290938E02A0938F02B0939002BD
:101540008091880290918902A0918A02B0918B02C9
:101550000196A11DB11D8093880290938902A093EA
:101560008A02B0938B02BF91AF919F918F913F916F
:101570002F910F900FBE0F901F90189529E8230F01
:101580000396A11DB11DD2CF1F920F920FB60F92DD
:1015900011242F933F934F935F936F937F938F9378
:1015A0009F93AF93BF93EF93FF9381E992E00E94E3
:1015B0001D02FF91EF91BF91AF919F918F917F910C
:1015C0006F915F914F913F912F910F900FBE0F90B0
:1015D0001F9018951F920F920FB60F9211242F9300
:1015E0008F939F93EF93FF93E091A102F091A2025A
:1015F0008081E091A702F091A80282FD1BC090813A
:101600008091AA028F5F8F732091AB02821741F005
:10161000E091AA02F0E0EF56FD4F958F8093AA0269
:10162000FF91EF919F918F912F910F900FBE0F908F
:101630001F9018958081F4CF1F920F920FB60F92D2
:1016400011242F933F934F935F936F937F938F93C7
:101650009F93AF93BF93EF93FF93E0910201F091BB
:1016600003010995FF91EF91BF91AF919F918F91E8
:101670007F916F915F914F913F912F910F900FBE8E
:101680000F901F9018951F920F920FB60F92112472
:101690002F933F934F935F936F937F938F939F937A
:1016A000AF93BF93EF93FF93E0910001F09101019D
:1016B0000995FF91EF91BF91AF919F918F917F918C
:1016C0006F915F914F913F912F910F900FBE0F90AF
:1016D0001F9018951F920F920FB60F9211248F939F
:1016E0000FB6F894A895809160008861809360009F
:1016F000109260000FBE8F910F900FBE0F901F9041
:1017000018951F920F920FB60F9211242F933F93AB
:101710004F935F936F937F938F939F93AF93BF93F9
:10172000CF93DF93EF93FF93CEE2D3E060E0898124
:101730000E94F0021092B1006A817B818C819D81B0
:101740000E9466126093B30081E08E83FF91EF9157
:10175000DF91CF91BF91AF919F918F917F916F91C9
:101760005F914F913F912F910F900FBE0F901F905F
:1017700018951F920F920FB60F9211240F900FBE63
:101780000F901F9018951F920F920FB60F92112471
:101790002F933F934F935F936F937F938F939F9379
:1017A000AF93BF93EF93FF93E7E3F3E084818F5F01
:1017B0008483CF010E94E005FF91EF91BF91AF912B
:1017C0009F918F917F916F915F914F913F912F9159
:1017D0000F900FBE0F901F9018951F920F920FB68B
:1017E0000F9211242F933F934F935F936F937F93A7
:1017F0008F939F93AF93BF93EF93FF938CE393E00B
:101800000E94E005FF91EF91BF91AF919F918F9161
:101810007F916F915F914F913F912F910F900FBEEC
:101820000F901F901895E1E9F2E01382128288EE82
:1018300093E0A0E0B0E084839583A683B7838EE035
:1018400091E09183808385EC90E09587848784EC98
:1018500090E09787868780EC90E0918B808B81EC7D
:1018600090E0938B828B82EC90E0958B848B86EC5E
:1018700090E0978B868B118E128E138E148E1092A1
:101880003503ECE3F3E01182108213821282E7E366
:10189000F3E011821082138212821482EFE8F3E0E7
:1018A0001582148217821086118682E591E0938357
:1018B0008283128A138A148A158A81E08683128EA3
:1018C000118E148E158E168E28E431E0308F278B02
:1018D000178E838F11A215A214A217A210A611A60B
:1018E0002EE331E033A322A312A686A388E083A7C8
:1018F00014A615A616A617A612AA11AA10AA15AA0A
:1019000014AA13AA16AA17AAEAE4F3E01382128211
:1019100080E893E09583848316821186108617826F
:1019200012861386148615861686118A108A1786E3
:10193000148A138A128A158A168A80E290E091A787
:1019400080A721ED32E033A722A714A615A611AA7D
:1019500010AA12AA13AA14AA15AA2AE231E0318306
:10196000208328E331E037A726A797AB86AB8AE62A
:1019700095E691AF80AF93AF82AF95AF84AF16AECF
:1019800017AE10928B0310928A0310928E0310925E
:101990008D0310928C03E0E4F3E013821282148230
:1019A00015821682178280E291E0918380831086EF
:1019B0000895CF93DF9300D01F92CDB7DEB7789410
:1019C00084B5826084BD84B5816084BD85B5826044
:1019D00085BD85B5816085BD80916E0081608093F5
:1019E0006E0010928100809181008260809381005E
:1019F000809181008160809381008091800081606E
:101A0000809380008091B10084608093B1008091C8
:101A1000B00081608093B00080917A0084608093F0
:101A20007A0080917A00826080937A0080917A00B7
:101A30008E7F80937A0080917A00806880937A000C
:101A40001092C100E091A102F091A20282E0808395
:101A5000E0919D02F0919E021082E0919F02F09130
:101A6000A00280E180831092A902E091A502F0918A
:101A7000A60286E08083E091A302F091A402808117
:101A800080618083E091A302F091A402808188604C
:101A90008083E091A302F091A4028081806880831A
:101AA000E091A302F091A40280818F7D80838BE876
:101AB00092E00E943C048FE893E090934D03809362
:101AC0004C03609174037091750343E050E0CE01C4
:101AD00001960E94C70F9A818B81298120938C03E4
:101AE00090938D0380938E0384E08093A30361E041
:101AF0000E941E0381E993E00E941804E8988EE991
:101B000091E090930101809300018FEA93E090931C
:101B100087028093860283E892E00E943A0460E0A4
:101B200082E00E941E0381E892E00E943C0461E092
:101B30008AE00E941E0361E08BE00E941E0360E0C9
:101B40008CE00E941E0361E08DE00E941E0380E590
:101B50008CBD61E08AE00E94F00261E08DE00E94AD
:101B6000F00260E08BE00E94F0020E94DC030E9421
:101B7000A7030E949D0345E84A95F1F700000E94E3
:101B8000DC030E94A70380E30E94A1030E94A70335
:101B90000E949D030DE412E061E8C62E62E0D62E9D
:101BA000FF24F394F80131964491F801649123E005
:101BB0008FEA93E00E94EE06811101C0F12C0E5FC6
:101BC0001F4FC016D10671F780E492E00E943A04DC
:101BD00060EC81E30E94F8030E948D0684E392E0AA
:101BE0000E943A0483E30E94E0038FEA93EB01979B
:101BF000F1F700C0000023E040EC6EE38FEA93E0D1
:101C00000E94EE0687E392E00E943C04FF2059F018
:101C10000E94DC030E94A7030E949D030E94EF0321
:101C200084E30E94E0038AE294E0909301018093B0
:101C30000001809169008C7F826080936900E89A3E
:101C400080E18093810010928000109285001092B4
:101C5000840080E49CE9909387008093860081E172
:101C6000809381000E940E0406E010E0F11002C093
:101C700008E010E081E993E00E94660581E993E0C5
:101C80000E941804B80153E0660F771F5A95E1F7D8
:101C900064517E4F48E050E089E993E00E94C70F0D
:101CA00080919903882371F01092A1031092A203EE
:101CB0006CE373E081E993E00E94DB0481E993E047
:101CC0000E94210480918E0390E001962AE0289FD3
:101CD0008001299F100D112481EB93E00E9466057D
:101CE00024E630E0D8010E94C11328EE33E040E042
:101CF00050E00E9490132093B6033093B7034093B3
:101D0000B80381E08093B90361EB73E08CE393E067
:101D10000E94690487E392E00E9487068CE692E0C5
:101D20000E9487066AE675E68AE493E00E949E07B1
:101D30006CE373E080E493E00E94020536E7E32E53
:101D400040E0A42E40E0B42E00914C0310914D03CE
:101D5000D8019B968C919B9782FFD9C09B968C91C2
:101D60009B978B7F9B968C936801BDE2CB0ED11C19
:101D700060EC8BE30E94F80318160CF043C060E897
:101D80008FE30E94F803F82EECE1E81708F46BC02B
:101D90000E94DC030E94A7038FEF0E94A1037C2C0A
:101DA0004601882D87198F1538F480E00E94A10321
:101DB000D4018D934D01F5CF0E949D0360E88FE320
:101DC0000E94F803282F30E0082E000C990B88277A
:101DD0009170F901E81BF90BCF01F7FD019695957C
:101DE0008795919581959109865BD80191968C9301
:101DF00060E88FE30E94F80387FD05C086EC92E05F
:101E00000E943C04F12C8AE30E94E003EBE7F1E03E
:101E10003197F1F700C000000E94EF0384E30E94B5
:101E2000E003FF20D1F1D8019C96FC929C979D96EF
:101E30008C919D97982F9E259D969C93A1E04F2D68
:101E400050E09A01215031096A2F70E0F601E60F47
:101E5000F71F908162177307B4F484528927808337
:101E6000AF5F892FF1CF85EB92E00E943A046F2D8E
:101E700070E090E080E04AE00E942C0682EB92E065
:101E80000E943A04BFCFD8019E968C918927808307
:101E9000B60186E593E00E94F314F0925503F80131
:101EA00014A683A580FF10C00E94DC030E94A70334
:101EB0000E949D0384E30E94E003D8019B968C91CD
:101EC0009B978E7F9B968C93809155038A30F8F078
:101ED000609174037091750343E050E0CE01019668
:101EE0000E94C70F29819A818B8130915903321347
:101EF00008C020915A03291304C090915B039817DE
:101F000031F065E573E08AE493E00E949E068EE37B
:101F100093E00E944105FC01009779F0029769F077
:101F200022812D7F2283DC01ED91FC910190F081D3
:101F3000E02D6CE373E00995EACFA114B10409F434
:101F400003CF0E940902882309F4FECE0E940000FC
:101F5000FBCEEF920F931F93CF93DF93E80134E012
:101F600047FD34E1042E000C550B57FF03C051957B
:101F700041955109E32E022F242FAE010E94D00F6C
:101F8000CE01DF91CF911F910F91EF900895FB014A
:101F9000DC0102C005900D9241505040D8F70895E1
:101FA000A9E0B0E0E6EDFFE00C9435126A01F22EF4
:101FB000B02E102FFBE3AF2EA01608F41BE31F5F1B
:101FC000012F27E0AE014F5F5F4F0E942F11BC0130
:101FD0008981982F9970913009F43FC09BE2E1FC10
:101FE00004C09E2D9170E0FC3AC05E2D5071E82F28
:101FF000E87083FF46C084E0911101C083E0EF2DBB
:10200000E81B8F1508F0E0E0D6018E2F20E2552363
:1020100051F1992329F0D6019C93C60101966C01D8
:1020200096012D5F3F4FE2FE24C08EE4D6018C93D3
:1020300091E411969C93119712968C93D9018E2F4F
:1020400090E281111BC0E20FF32FF11D10828EEF81
:102050009FEF2996ECE00C9451129DE2C6CF90E2DE
:10206000C4CF2D9381508111FCCFCE0ED11CE0E066
:10207000D0CF8EE6D6018C9391E6DBCF9D93815035
:10208000E0CF482F447082FF3DC084E0911101C031
:1020900083E08F1510F4EF2DE81BD6018E2F20E280
:1020A000552309F1992329F0D6019C93C601019685
:1020B0006C0196012D5F3F4FE2FE1BC089E4D60103
:1020C0008C938EE411968C93119786E412968C93E0
:1020D000D9018E2F90E2882309F4B5CF9D938150CA
:1020E000FACF2D9381508111FCCFCE0ED11CE0E0B0
:1020F000D9CF89E6D6018C938EE611968C931197F1
:1021000086E6E4CF9B0177FF02C030E020E0A1E04B
:10211000B0E0911102C0B0E0A0E0F9013196AE0F3D
:10212000BF1F8B2C912CBB2009F461C05401EFEF31
:10213000AE1ABE0AAA0DBB1DFA161B0619F014F042
:102140004F2D4A1B511188C0E3FC59C07601A42FC2
:10215000B0E2A1114FC0C40ED11C992309F45BC099
:1021600040E0D6011196F60190836D01552309F4E4
:1021700048C0012F060F9A81582F507184FF03C069
:10218000913309F4015010160CF047C0093008F0E3
:1021900008E0EEE2FE2E5B01A01AB10885019194E1
:1021A000819491082F3F320729F4D601FC92F60161
:1021B00031966F016217730794F1021713077CF5CC
:1021C000DB01A21BB30BAA24A394B12CAC0EBD1E41
:1021D000AA0DBB1D11968C9121503109D601119683
:1021E00028153905F4F0F60180836D01DBCFB12CA1
:1021F000A12CA0CFF701B1937F01A150AACF9111DB
:10220000B0CFD601942F50E302C05D93915091114D
:10221000FCCFC40ED11C40E0ACCF01E0BACF80E3CC
:10222000DBCF6217730731F4963388F4953311F4DA
:10223000552369F0F6018083FD01842F90E281111E
:1022400008C0A40FB11D1C9290E080E002CF81E392
:10225000F1CF91938150F3CF911183CF8ACF283062
:1022600008F027E03327DA01990F311D87FD9160CF
:1022700000966105710539F432602E5F3D9330E3BD
:102280002A95E1F708959F3F30F080387105610588
:1022900009F03C5F3C5F3D93913008F08068911DF0
:1022A000DF93CF931F930F93FF92EF92192F987F95
:1022B0009695E92F96959695E90FFF27EE53FF4FD8
:1022C00099273327EE24FF24A701E70105900894FE
:1022D000079428F4360FE71EF81E491F511D660F9C
:1022E000771F881F991F0694A1F70590079428F47B
:1022F000E70EF81E491F561FC11D770F881F991F33
:10230000661F0694A1F70590079428F4F80E491F5C
:10231000561FC71FD11D880F991F661F771F069470
:10232000A1F70590079420F4490F561FC71FD81F27
:10233000990F661F771F881F0694A9F7849110953F
:10234000177041F0D695C79557954795F794E79440
:102350001A95C1F7E8E6F0E068941590159135916B
:102360006591959105907FE27395E118F10A430B11
:10237000560BC90BD009C0F7E10CF11E431F561FC5
:10238000C91FD01D7EF4703311F48A95E6CFE8940E
:10239000015030F0080F0AF40027021708F4202F2C
:1023A0002395022F7A3328F079E37D932A95E9F774
:1023B00010C07D932A9589F6069497956795379571
:1023C00017951794E118F10A430B560BC90BD00966
:1023D00098F023957E9173957A3308F070E37C939F
:1023E0002013B8F77E9170617D9330F0839571E38F
:1023F0007D9370E32A95E1F71124EF90FF900F9100
:102400001F91CF91DF91992787FD90950895DC0169
:10241000CB01FC01F999FECF06C0F2BDE1BDF89AEF
:10242000319600B40D9241505040B8F70895DC0148
:10243000CB0103C02D910E94221241505040D0F791
:102440000895262FF999FECF1FBA92BD81BD20BDF8
:102450000FB6F894FA9AF99A0FBE019608952F9242
:102460003F924F925F926F927F928F929F92AF9224
:10247000BF92CF92DF92EF92FF920F931F93CF9371
:10248000DF93CDB7DEB7CA1BDB0B0FB6F894DEBF08
:102490000FBECDBF09942A88398848885F846E842E
:1024A0007D848C849B84AA84B984C884DF80EE8078
:1024B000FD800C811B81AA81B981CE0FD11D0FB681
:1024C000F894DEBF0FBECDBFED0108950E94DA1271
:1024D00088F09F5798F0B92F9927B751B0F0E1F0E5
:1024E000660F771F881F991F1AF0BA95C9F714C095
:1024F000B13091F00E94F412B1E008950C94F412FE
:10250000672F782F8827B85F39F0B93FCCF38695CD
:1025100077956795B395D9F73EF49095809570952A
:1025200061957F4F8F4F9F4F0895E89409C097FBA7
:102530003EF490958095709561957F4F8F4F9F4F9A
:102540009923A9F0F92F96E9BB279395F6958795DE
:1025500077956795B795F111F8CFFAF4BB0F11F4A1
:1025600060FF1BC06F5F7F4F8F4F9F4F16C0882348
:1025700011F096E911C0772321F09EE8872F762F7E
:1025800005C0662371F096E8862F70E060E02AF0BF
:102590009A95660F771F881FDAF7880F96958795AB
:1025A00097F9089557FD9058440F551F59F05F3F14
:1025B00071F04795880F97FB991F61F09F3F79F065
:1025C00087950895121613061406551FF2CF4695E7
:1025D000F1DF08C0161617061806991FF1CF869569
:1025E0007105610508940895E894BB27662777274D
:1025F000CB0197F908950E940E130C947F130E944B
:10260000711338F00E94781320F0952311F00C9488
:1026100068130C946E1311240C94F5120E94D212BC
:1026200070F3959FC1F3950F50E0551F629FF00125
:10263000729FBB27F00DB11D639FAA27F00DB11D3E
:10264000AA1F649F6627B00DA11D661F829F2227C7
:10265000B00DA11D621F739FB00DA11D621F839F4E
:10266000A00D611D221F749F3327A00D611D231F24
:10267000849F600D211D822F762F6A2F11249F5772
:1026800050409AF0F1F088234AF0EE0FFF1FBB1F75
:10269000661F771F881F91505040A9F79E3F510534
:1026A00080F00C9468130C94F5125F3FE4F3983EAD
:1026B000D4F3869577956795B795F795E7959F5FDE
:1026C000C1F7FE2B880F911D9695879597F9089570
:1026D00097F99F6780E870E060E008959FEF80ECD5
:1026E000089500240A941616170618060906089578
:1026F00000240A9412161306140605060895092EDE
:102700000394000C11F4882352F0BB0F40F4BF2B4C
:1027100011F460FF04C06F5F7F4F8F4F9F4F08958C
:10272000A1E21A2EAA1BBB1BFD010DC0AA1FBB1FD5
:10273000EE1FFF1FA217B307E407F50720F0A21B47
:10274000B30BE40BF50B661F771F881F991F1A94B4
:1027500069F760957095809590959B01AC01BD01DE
:10276000CF010895A29FB001B39FC001A39F700D38
:10277000811D1124911DB29F700D811D1124911D89
:1027800008950E94B213B7FF0895821B930B08951A
:10279000EE0FFF1F0590F491E02D09940F931F9306
:1027A000CF93DF938230910510F482E090E0E091C6
:1027B000DB03F091DC0330E020E0B0E0A0E03097F4
:1027C00099F42115310509F44AC0281B390B24302E
:1027D0003105D8F58A819B816115710589F1FB016D
:1027E00093838283FE0111C0408151810281138154
:1027F00048175907E0F04817590799F4109761F006
:1028000012960C93129713961C933296CF01DF9178
:10281000CF911F910F9108950093DB031093DC0378
:10282000F4CF2115310551F04217530738F0A901B3
:10283000DB019A01BD01DF01F801C1CFEF01F9CF42
:102840009093DC038093DB03CDCFFE01E20FF31FF7
:10285000819391932250310939832883D7CF2091D6
:10286000D9033091DA03232B41F4209106013091F2
:1028700007013093DA032093D903209104013091AA
:1028800005012115310541F42DB73EB740910801EE
:1028900050910901241B350BE091D903F091DA0323
:1028A000E217F307A0F42E1B3F0B2817390778F027
:1028B000AC014E5F5F4F2417350748F04E0F5F1F86
:1028C0005093DA034093D903819391939FCFF0E023
:1028D000E0E09CCFCF93DF930097E9F0FC013297C3
:1028E00013821282A091DB03B091DC03ED0130E092
:1028F00020E01097A1F420813181820F931F209155
:10290000D9033091DA032817390709F061C0F09331
:10291000DA03E093D903DF91CF910895EA01CE174E
:10292000DF07E8F54A815B819E0141155105B1F74A
:10293000E901FB83EA8349915991C40FD51FEC1734
:10294000FD0761F4808191810296840F951FE90152
:1029500099838883828193819B838A83F0E0E0E07E
:1029600012968D919C9113970097B9F52D913C91FA
:102970001197CD010296820F931F2091D9033091B8
:10298000DA032817390739F6309751F51092DC032E
:102990001092DB03B093DA03A093D903BCCFD383A7
:1029A000C28340815181840F951FC817D90761F4F4
:1029B0004E5F5F4F88819981480F591F5183408333
:1029C0008A819B81938382832115310509F0B0CFE1
:1029D000F093DC03E093DB039ECFFD01DC01C0CF6D
:1029E00013821282D7CFFB01DC0102C001900D924D
:0C29F00041505040D8F70895F894FFCFF4
:1029FC009E019E010000DD038000000000003F02EC
:102A0C009F01CC01A702FD01DB01EF0100000000DA
:102A1C0002054204EC07000000004304F40717040D
:102A2C009E06F807D2FF0000770A0000000014048D
:102A3C003704EE070000000014043704F60700000A
:102A4C0000003D073804F007204D487A00467265B7
:102A5C0071203078323100202000202F202D00648E
:102A6C00426D0053656172636820666F72207570E9
:102A7C0070657220626F756E640053656172636875
:102A8C0020666F72206C6F77657220626F756E6452
:102A9C00000A446F6E653A203078323100202D20C8
:102AAC003078323100436F756C64206E6F74207215
:102ABC0065636569766520616E79206D65737361F8
:102ACC0067650043616C63756C6174656420467264
:102ADC0065713A20307832310053746F7265206919
:102AEC006E746F20636F6E66696720617265613A00
:102AFC00200073746F72656421000A4F6C6420436C
:102B0C006F6E6669672046726571207761733A2033
:102B1C003078323100476F696E6720746F20736CA8
:102B2C006565702E2E2E0041637469766520706980
:102B3C006E67206973204E4F5420656E61626C6520
:102B4C00642C206C6F6F6B696E6720666F722061EE
:102B5C006E792074656C656772616D005374617277
:102B6C007420736561726368696E67202E2E2E0067
:107800000C94343C0C94513C0C94513C0C94513CE1
:107810000C94513C0C94513C0C94513C0C94513CB4
:107820000C94513C0C94513C0C94513C0C94513CA4
:107830000C94513C0C94513C0C94513C0C94513C94
:107840000C94513C0C94513C0C94513C0C94513C84
:107850000C94513C0C94513C0C94513C0C94513C74
:107860000C94513C0C94513C11241FBECFEFD8E036
:10787000DEBFCDBF11E0A0E0B1E0EAE8FFE702C063
:1078800005900D92A230B107D9F712E0A2E0B1E065
:1078900001C01D92AD30B107E1F70E942D3D0C945F
:1078A000C33F0C94003C982F95959595959595958B
:1078B000905D8F708A307CF0282F295A8091C0000B
:1078C00085FFFCCF9093C6008091C00085FFFCCF60
:1078D0002093C6000895282F205DF0CF982F809127
:1078E000C00085FFFCCF9093C6000895EF92FF92F1
:1078F0000F931F93EE24FF2487018091C00087FD22
:1079000017C00894E11CF11C011D111D81E2E8164D
:1079100081EAF80687E0080780E0180770F3E09135
:107920000401F091050109958091C00087FFE9CF1E
:107930008091C6001F910F91FF90EF9008950E94D3
:10794000763C982F8091C00085FFFCCF9093C600B5
:1079500091362CF490330CF09053892F089597555D
:10796000892F08951F930E949F3C182F0E949F3CCF
:107970001295107F810F1F9108951F93182F882350
:1079800021F00E94763C1150E1F71F9108951F935A
:10799000182F0E94763C803249F0809103018F5F5E
:1079A000809303018530C1F01F9108958091C0003C
:1079B00085FFFCCF84E18093C6008091C00085FFE5
:1079C000FCCF1093C6008091C00085FFFCCF80E102
:1079D0008093C6001F910895E0910401F091050184
:1079E00009951F9108950E94763C803241F0809164
:1079F00003018F5F80930301853081F008958091AA
:107A0000C00085FFFCCF84E18093C6008091C00058
:107A100085FFFCCF80E18093C6000895E0910401CA
:107A2000F09105010995089548EC50E08823A1F0F4
:107A30002D9A28EE33E0FA013197F1F721503040CA
:107A4000D1F72D9828EE33E0FA013197F1F7215064
:107A50003040D1F7815061F708953F924F925F9285
:107A60006F927F928F929F92AF92BF92CF92DF924E
:107A7000EF92FF920F931F93CF93DF93000082E06A
:107A80008093C00080E18093C4001092C50088E11B
:107A90008093C10086E08093C2005098589A259A3E
:107AA00081E00E94143D24E1F22E9EE1E92E85E959
:107AB000D82E0FE0C02E10E1B12EAA24A394B1E479
:107AC0009B2EA6E58A2EF2E57F2EE0E26E2E79E46B
:107AD000572E63E5462E50E5352E0E94763C8033C6
:107AE000B1F18133B9F1803409F46FC0813409F404
:107AF00076C0823409F485C0853409F488C08035A5
:107B000031F1823521F1813511F1853509F485C0D6
:107B1000863509F48DC0843609F496C0843709F49B
:107B200003C1853709F472C1863709F466C08091B4
:107B300003018F5F80930301853079F6E0910401A2
:107B4000F091050109950E94763C803351F60E9420
:107B5000F33CC3CF0E94763C803249F78091C0004D
:107B600085FFFCCFF092C6008091C00085FFFCCF5E
:107B70009092C6008091C00085FFFCCF8092C60025
:107B80008091C00085FFFCCF7092C6008091C0003C
:107B900085FFFCCF6092C6008091C00085FFFCCFBE
:107BA0005092C6008091C00085FFFCCF4092C60075
:107BB0008091C00085FFFCCF3092C6008091C0004C
:107BC00085FFFCCFB092C60088CF0E94763C8638F5
:107BD00008F4BDCF0E94763C0E94F33C7ECF0E9409
:107BE000763C803809F49CC0813809F40BC1823896
:107BF00009F430C1883909F48FC080E00E94C73C85
:107C00006CCF84E10E94BD3C0E94F33C66CF85E0CE
:107C10000E94BD3C0E94F33C60CF0E94763C809362
:107C200006010E94763C809307010E94F33C55CFE9
:107C30000E94763C803309F411C183E00E94BD3C70
:107C400080E00E94C73C49CF0E94763C80930902A5
:107C50000E94763C8093080280910C028E7F809374
:107C60000C020E94763C853409F409C18091080217
:107C700090910902892B89F000E010E00E94763C87
:107C8000F801E85FFE4F80830F5F1F4F809108026D
:107C9000909109020817190788F30E94763C8032F8
:107CA00009F045CF80910C0280FFF5C0609106017C
:107CB00070910701660F771F7093070160930601AB
:107CC000A0910802B09109021097C9F0E8E0F1E034
:107CD0009B01AD014E0F5F1FF999FECF32BD21BD53
:107CE000819180BDFA9AF99A2F5F3F4FE417F5070B
:107CF00099F76A0F7B1F70930701609306018091CB
:107D0000C00085FFFCCFF092C6008091C00085FFC7
:107D1000FCCFB092C600E1CE83E00E94C73CDDCE2E
:107D200082E00E94C73CD9CE0E94763C8093090233
:107D30000E94763C80930802809106019091070191
:107D4000880F991F90930701809306010E94763C4B
:107D5000853409F49AC080910C028E7F80930C02C6
:107D60000E94763C803209F0B8CE8091C00085FF39
:107D7000FCCFF092C600A0910802B09109021097C2
:107D8000C1F180910C02082F0170182F1695117007
:107D9000E0910601F0910701AF014F5F5F4FBA011B
:107DA00020E030E00023B1F4112339F49491809164
:107DB000C00085FFFCCF9093C6002F5F3F4FCB01E3
:107DC0000196FA012A173B0780F4BC014F5F5F4F11
:107DD000002351F3F999FECFF2BDE1BDF89A90B5B9
:107DE0008091C00085FFFCCFE6CF709307016093C0
:107DF00006018091C00085FDE5CE8091C00085FF21
:107E0000F8CFE0CE81E00E94C73C67CE0E94763C6E
:107E1000803209F08CCE8091C00085FFFCCFF092BB
:107E2000C6008091C00085FFFCCFE092C600809123
:107E3000C00085FFFCCFD092C6008091C00085FFB6
:107E4000FCCFC092C6008091C00085FFFCCFB092ED
:107E5000C60043CE80E10E94C73C3FCE0E94763CE4
:107E60000E94763C182F0E94763C112309F483C0AF
:107E7000113009F484C08FE00E94C73C2ECE80915F
:107E80000C02816080930C02F1CE80910C02816023
:107E900080930C0265CF809107018823880F880B9F
:107EA0008A2180930B028091060190910701880F2F
:107EB000991F90930701809306018091080280FF2B
:107EC00009C08091080290910902019690930902DD
:107ED00080930802F894F999FECF1127E0910601EA
:107EE000F0910701C8E0D1E0809108029091090269
:107EF000103091F40091570001700130D9F303E084
:107F000000935700E8950091570001700130D9F3B4
:107F100001E100935700E8950990199000915700EE
:107F200001700130D9F301E000935700E8951395F3
:107F3000103498F011270091570001700130D9F3E7
:107F400005E000935700E89500915700017001305B
:107F5000D9F301E100935700E8953296029709F0B2
:107F6000C7CF103011F00296E5CF11248091C000E8
:107F700085FFC5CEC8CE8EE10E94C73CAECD85E957
:0A7F80000E94C73CAACDF894FFCF81
:027F8A00800075
:040000030000780081
:00000001FF
