:100000000C9474010C94800C0C94590C0C949C016D
:100010000C949C010C949C010C94A70C0C94BE0CA9
:100020000C949C010C94000D0C949C010C949C016C
:100030000C949C010C942A0D0C949C010C949C0132
:100040000C94B70B0C949C010C94270C0C94010C91
:100050000C949C010C94F60C0C949C010C949C0147
:100060000C949C010C949C0100407A10F35A00A05F
:10007000724E18090010A5D4E80000E87648170071
:1000800000E40B54020000CA9A3B000000E1F505B1
:10009000000080969800000040420F000000A086FB
:1000A00001000000102700000000E803000000002D
:1000B0006400000000000A000000000001000000D1
:1000C00000002C76D888DC674F0823DFC1DFAE59EB
:1000D000E1B1B796E5E3E453C63AE651997696E87E
:1000E000E6C28426EB898C9B62ED407C6FFCEFBC02
:1000F0009C9F40F2BAA56FA5F490055A2AF75C932D
:100100006B6CF9676DC11BFCE0E40D47FEF520E662
:10011000B500D0ED902E0300943577050080841E45
:10012000080000204E0A000000C80C333333330FA0
:10013000986E12831141EF8D2114893BE65516CF3D
:10014000FEE6DB18D1844B381BF77C1D901DA4BB49
:10015000E424203284725E228100C9F124ECA1E5FE
:100160003D273000303000303030000D0A000D0ADD
:100170000020726561643A200020657870656374C0
:1001800065643A20004572726F7220617420000D20
:100190000A000000000023002600290000000000E3
:1001A000240027002A0000000000250028002B0062
:1001B000040404040404040402020202020203030D
:1001C0000303030301020408102040800102040815
:1001D00010200102040810200000000800020100A5
:1001E0000003040700000000000000000000000001
:1001F00000000000021405050000000002010A01D1
:1002000000000000000000000000000000000000EE
:1002100000000000060305010101010A06010101B9
:100220000501050A0206020200000000050108049B
:10023000040404000D0A00202D2072656164790019
:1002400043432056657273696F6E3A2000002E0298
:1002500006030D04E905CA070C0B060D210E650FF8
:100260006A10C81193120315341703181819161BB6
:10027000431E2F1F65207823E9242A251F26113EBF
:10028000033100434320696E69740041736B536905
:100290006E2B2B2076352E302E322028446563209D
:1002A000323320323032322031353A34343A32333C
:1002B00029000D0A005061636B657420746F6F2014
:1002C0006269673A2000435243204661696C656465
:1002D000000101014672657154657374303000008D
:1002E000001041000000500D11241FBECFEFD8E0D8
:1002F000DEBFCDBF12E0A0E0B1E0EEE9FCE202C05B
:1003000005900D92A438B107D9F723E0A4E8B2E034
:1003100001C01D92AA3EB207E1F711E0C4E7D1E0A7
:1003200004C02197FE010E941915C337D107C9F7F0
:100330000E942A0E0C944D160C9400000895AF9262
:10034000BF92CF92DF92EF92FF920F931F93CF93C2
:10035000DF936C017B018B01040F151FEB015E0124
:10036000AE18BF08C017D10759F06991D601ED91B9
:10037000FC910190F081E02DC6010995892B79F758
:10038000C501DF91CF911F910F91FF90EF90DF900A
:10039000CF90BF90AF900895FC01538D448D252FD1
:1003A00030E0842F90E0821B930B541710F0CF960F
:1003B000089501970895FC01918D828D981761F041
:1003C000A28DAE0FBF2FB11D5D968C91928D9F5F58
:1003D0009F73928F90E008958FEF9FEF0895FC0137
:1003E000918D828D981731F0828DE80FF11D858DEA
:1003F00090E008958FEF9FEF0895FC01918D228D7D
:10040000892F90E0805C9F4F821B91098F73992701
:10041000089585E992E00E94FD0121E0892B09F40D
:1004200020E0822F089580E090E0892B29F00E943F
:10043000090281110C9400000895FC01A48DA80FFD
:10044000B92FB11DA35ABF4F2C91848D90E0019616
:100450008F739927848FA689B7892C93A089B18936
:100460008C91837080648C93938D848D981306C0D7
:100470000288F389E02D80818F7D80830895EF923B
:10048000FF920F931F93CF93DF93EC0181E0888F4E
:100490009B8D8C8D98131AC0E889F989808185FF1E
:1004A00015C09FB7F894EE89FF896083E889F989C0
:1004B00080818370806480839FBF81E090E0DF91C2
:1004C000CF911F910F91FF90EF900895F62E0B8D15
:1004D00010E00F5F1F4F0F731127E02E8C8D8E11D0
:1004E0000CC00FB607FCFACFE889F989808185FF37
:1004F000F5CFCE010E941D02F1CFEB8DEC0FFD2F49
:10050000F11DE35AFF4FF0829FB7F8940B8FEA89F1
:10051000FB8980818062CFCF0F931F93CF93DF93AE
:100520008C01D0E0C0E0F801EC0FFD1F6491662360
:1005300041F085E992E00E943F02892B11F021965B
:10054000F2CFCE01DF91CF911F910F910895CF93FC
:10055000DF93EC01888D8823B9F0AA89BB89E889EB
:10056000F9898C9185FD03C0808186FD0DC00FB691
:1005700007FCF7CF8C9185FFF2CF808185FFEDCF0F
:10058000CE010E941D02E9CFDF91CF910895833003
:1005900081F028F4813099F08230A9F008958730F5
:1005A000A9F08830C9F08430B1F4809180008F7D4B
:1005B00003C0809180008F7780938000089584B578
:1005C0008F7784BD089584B58F7DFBCF8091B00077
:1005D0008F778093B00008958091B0008F7DF9CF20
:1005E0001F93CF93DF93282F30E0F901E852FE4F9D
:1005F0008491F901EC53FE4FD491F901E055FE4F7F
:10060000C491CC23A9F0162F81110E94C702EC2FB0
:10061000F0E0EE0FFF1FEA55FE4FA591B4918FB7A2
:10062000F894EC91111108C0D095DE23DC938FBFB4
:10063000DF91CF911F910895DE2BF8CFCF93DF93F9
:1006400090E0FC01EC53FE4F249180559E4FFC013D
:1006500084918823D1F090E0880F991FFC01E45623
:10066000FE4FA591B491FC01EA55FE4FC591D4917E
:1006700061110EC09FB7F8948C91E22FE0958E2304
:100680008C932881E223E8839FBFDF91CF91089567
:100690008FB7F894EC91E22BEC938FBFF6CF411516
:1006A000510529F4EAE7F0E080818F7780836A3092
:1006B0007105B9F0CB01880F991F880F991F8072BF
:1006C00067706860682B88E10FB6F894A8958093EE
:1006D00060000FBE60936000E0E6F0E0808180641F
:1006E0008083232BD9F483B7817F846083BFF89400
:1006F00083B7816083BF85B7806685BF8F7D85BFE7
:100700007894889583B78E7F83BF7894452B29F49E
:10071000EAE7F0E0808180688083089583B7817F75
:10072000846083BFF89483B7816083BF7894889591
:1007300083B78E7F83BF7894E9CF61E08AE00C9421
:10074000F0028EBD0DB407FEFDCF8EB50895CF9299
:10075000DF92EF92FF920F931F93CF93DF93C4EE3C
:10076000D1E000ED11E09CEBE92E91E0F92EFE01C5
:100770008491F801C490F701D490DD20A1F081119B
:100780000E94C702ED2DF0E0EE0FFF1FEE56FE4F68
:10079000A591B4918C91C82281E090E011F490E091
:1007A00080E0892B21F7DF91CF911F910F91FF906E
:1007B000EF90DF90CF90089560E08AE00C94F00213
:1007C000CF93C82F0E94DC030E94A7038C2F0E94A6
:1007D000A103C82F0E949D038C2FCF91089586E31B
:1007E0000E94E0038DE30E94E0038AE30C94E0039F
:1007F000CF93DF93D82FC62F0E94DC030E94A7035C
:100800008D2F8C2B0E94A10380E00E94A103C82F92
:100810000E949D038C2FDF91CF910895EFE6F0E0C9
:100820008081816080830895FC0110860895089579
:10083000FC018289938961E0911101C060E00C9410
:10084000F002FC018289938960E0911101C061E0AE
:100850000C94F002E0918A02F0918B02838581FD75
:1008600003C083858C60838708951F93CF93DF93A4
:10087000FC01238520FF11C0162FEC010E94DC0330
:100880000E94A7030E949D0311110E94EF0384E3BD
:100890000E94E0038B858E7F8B87DF91CF911F9124
:1008A000089580E008950895089508950C948C02A9
:1008B0000E9456048FE891E00C9456040895089520
:1008C0002FB7F894FC01808191812FBF0895FF928A
:1008D0000F931F93CF93DF93EC018B01FFB6F89436
:1008E0000E9460049C019FB7F894F8013183208333
:1008F0009FBF8FB7F894198308838FBFFFBEDF9126
:10090000CF911F910F91FF9008956F927F928F92D8
:10091000DF92EF92FF920F931F93CF93DF937B01B0
:1009200022E0E20EF11CDB0115962D913D914C91D8
:10093000232B242B09F44DC0EB01DFB6F8942C8156
:1009400022602C838C010E946004009709F43EC051
:10095000FC013297A1F06580768087802D813E81F1
:100960004F81CF01029662167306840650F4261951
:10097000370948092D833E834F838C01E4CF90E0F3
:1009800080E02FB7F8949B838A832FBF8FB7F894AA
:10099000D801ED92FC928FBF309761F085819681EE
:1009A000A7812D813E814F81821B930BA40B8583F0
:1009B0009683A783DFBEDF91CF911F910F91FF90A8
:1009C000EF90DF908F907F906F900895F0E0E0E0DF
:1009D000D8CFB7010296DF91CF911F910F91FF9071
:1009E000EF90DF908F907F906F900C9467040F933F
:1009F0001F93CF93DF93EC018B01E88981E08E0F89
:100A0000888BEC0FFD2FF11D228530E0A4E6B0E0CD
:100A10000E9403152AE030E040E050E00E94E1141B
:100A20002D833E834F83BE01C8010E9485048889BF
:100A30008170DF91CF911F910F910895EF92FF92F6
:100A40000F931F93CF93DF93EC01FFB6F8940E94AE
:100A500060048C01892B71F0EFB6F894CE010E94EE
:100A600060040E9460049C019FB7F8943983288336
:100A70009FBFEFBEFFBEC801DF91CF911F910F91C5
:100A8000FF90EF900895BF92CF92DF92EF92FF9286
:100A90000F931F93CF93DF93EC01FFB6F8948C81F3
:100AA0008D7F8C8383E493E00E9460040097C9F1FA
:100AB0009C012250310983E493E02115310589F12D
:100AC00089010E5F1F4FC217D30709F50E941E054B
:100AD000C8010E946004009779F0FC01329761F030
:100AE00085819681A7812D813E814F81820F931F41
:100AF000A41F85839683A783FFBEDF91CF911F91AB
:100B00000F91FF90EF90DF90CF90BF900895C801B4
:100B10000E946004009729F09C0122503109C8010D
:100B2000CCCF6E0182E0C80ED11CEFB6F894BFB6F0
:100B3000F89485E493E00E946004EC0125E433E03E
:100B4000209779F010E000E0CC16DD0609F4890169
:100B5000CE010E9460049E010115110521F4EC01F3
:100B6000EFCF10E000E0BFBE0115110511F4EFBE9C
:100B7000C3CFC8010E941E05FACFCF92DF92FF9229
:100B80000F931F93CF93DF938C01FFB6F8940E94CD
:100B90006004009769F1EC01229751F18D819E81EB
:100BA000AF810197A1098D839E83AF83680182E0A5
:100BB000C80ED11C8D819E81AF81892B8A2BC1F4F7
:100BC000C8010E941E058C8180FF1CC08D7F8C8314
:100BD000E881F9810190F081E02DB801CE010995FD
:100BE000C8010E946004009719F0EC01229711F7E8
:100BF000FFBEC801DF91CF911F910F91FF90DF9051
:100C0000CF900895BE016E5F7F4FC6010E946704BA
:100C1000E7CF8F929F92AF92BF920F931F93CF9384
:100C2000DF93CDB7DEB7A1970FB6F894DEBF0FBE46
:100C3000CDBF19A2423008F44AE08E010F5D1F4F6C
:100C4000842E912CB12CA12CA50194010E94E114B9
:100C5000E62FB901CA01EA3044F5E05DD801EE9310
:100C60008D01232B242B252B79F790E080E0109722
:100C700069F0FD0101900020E9F73197AF014A1BAF
:100C80005B0BBD0185E992E00E949F01A1960FB622
:100C9000F894DEBF0FBECDBFDF91CF911F910F91B2
:100CA000BF90AF909F908F900895E95CD7CFFC01E3
:100CB00001900020E9F73197AF01481B590BBC01A7
:100CC00085E992E00C949F010E9457068EE691E020
:100CD0000C9456046F927F928F929F92AF92BF9224
:100CE000CF92DF92EF92FF920F931F93CF93DF93F8
:100CF000CDB7DEB76D970FB6F894DEBF0FBECDBF90
:100D00007C015B012091B703FC01908581E0890F94
:100D100080878EE0898380E18C8382E28B8386E00A
:100D20008B879A8391E09C871D861E862F87309142
:100D3000E00338872091E10329879091E2039A87A5
:100D400040913B03341309C030913C03231305C089
:100D500020913D03921301C08B838091E3038D8327
:100D60008091E4038E838091E5038F838B8180687B
:100D70008B8300915303109154034801F0E28F0ECE
:100D8000911C68018DE2C80ED11C8EE0FE013296E6
:100D9000D60101900D928A95E1F78EE0F80184A7C3
:100DA00085A596E7892785A726A5BE969DE0915043
:100DB00039F0319184528327DF0111978C93F7CF5B
:100DC000F80182AD822782AF74A4B8016E5D7F4FB7
:100DD000F80182A5882339F08FEC97E00197F1F7AD
:100DE00000C00000F5CF8AE090E0A0E087A390A7C4
:100DF000A1A781E082A783E493E00E94850461E0DB
:100E0000C4010E943504F80183A5826083A786E3AC
:100E10000E94E0038BE30E94E00398EC992E85E3A7
:100E20000E94E00387EC90E00197F1F700C000001A
:100E30009A94911056C086E30E94E0038BE30E94CF
:100E4000E0038DE30E94E00384E30E94E00360EC92
:100E500085E30E94F8038D30B9F7F80183A58D7FF3
:100E600083A7E0915303F09154038285811113C04D
:100E70008F010E5F1F4F82E0828781E08387848726
:100E80001586138A128A63E473E0C8010E94F7048E
:100E9000C8010E94210480919103909192030397CD
:100EA00009F460C084E690E0A0E0F70185839683B2
:100EB000A783B701C5016D960FB6F894DEBF0FBECC
:100EC000CDBFDF91CF911F910F91FF90EF90DF90F9
:100ED000CF90BF90AF909F908F907F906F900C9429
:100EE000850460EC85E30E94F803833109F097CF15
:100EF000EFE1FEE43197F1F700C000000E94DC034F
:100F00000E94A7038FE30E94A103872D0E94A103E3
:100F10000E949D030E94DC030E94A7038FE70E94AA
:100F2000A1036C2C4601882D8619871530F4F40135
:100F300081914F010E94A103F6CF0E949D0388EC8E
:100F4000D82E60EC85E30E94F8038D3009F485CF3C
:100F500087EC90E00197F1F700C00000DA94D1101F
:100F6000F0CF7BCF6D960FB6F894DEBF0FBECDBF2E
:100F7000DF91CF911F910F91FF90EF90DF90CF9075
:100F8000BF90AF909F908F907F906F900895CF9378
:100F9000C82F803128F460E385E992E00E943F0287
:100FA0006C2F70E090E080E040E1CF910C94090656
:100FB0000F931F93CF93DF93EC018B01FB0184818F
:100FC0000E94C707F80185810E94C707F801868142
:100FD0000E94C70782E892E00E945706EA81FB81DF
:100FE0009FAD81A1891708F4892F8FAFF8019481F3
:100FF0008091E003981318C095818091E1039813C4
:1010000013C096818091E20398130EC08EAD8F5F5E
:101010008EAF882349F0E881F9810084F185E02DC5
:1010200063E473E0CE01099581E0DF91CF911F91D8
:101030000F910895EF92FF920F931F93CF93DF9339
:101040007C01D62FC42F122F0E94DC030E94A7031D
:101050008D2F0E94A1038C2F0E94A1030E949D034B
:1010600060E88D2F0E94F803082F81E0C01779F007
:101070001123A1F02FEF210F4C2F6D2FC7010E94DC
:101080001A08EFECF7E03197F1F700C00000DF91AC
:10109000CF911F910F91FF90EF90089585E891E017
:1010A0000E9456048D2F0E94C70789E791E00E9495
:1010B00056048C2F0E94C70781E791E00E945604D6
:1010C000802F0E94C70784E392E00E94560480E0CC
:1010D000DECFCF93DF93EC0187E691E0C031D105FD
:1010E00060F084E691E0CF3FD10539F030F0C115D2
:1010F00080E1D80720F482E691E00E948C02BE01D4
:1011000090E080E040E1DF91CF910C9409061F93BD
:10111000CF93DF93EC011FB7F894988988859817CF
:1011200060F4CE010E94F7041FBF8823C1F0CE01F6
:10113000DF91CF911F910C942104188A99859923EE
:1011400081F389898F5F898B891758F348E050E0D4
:101150006CEE71E0CE0108960E9418111FBFCE01FF
:10116000DF91CF911F910C9418040F931F93CF938D
:10117000DF93CDB7DEB760970FB6F894DEBF0FBE32
:10118000CDBF0E94E61320E030E040ED51E40E9424
:101190004C1420E030E040E857E30E944C148E01EC
:1011A0000F5F1F4F23E048E00E94FA10C8010E9421
:1011B000570688E591E00E94570660960FB6F894AE
:1011C000DEBF0FBECDBFDF91CF911F910F9108956C
:1011D000EF92FF920F931F93CF93DF93EC017B016C
:1011E0008C01025D1F4FC8010E944305F9AEE8AEB5
:1011F0001FAE1EAE8DE591E00E94570688AD99ADF9
:101200000E94690868AD79AD90E080E081960E9407
:10121000B5088FEF91E00E9457068A819B8123E0F9
:1012200041E26DE080960E941A0849AD8A819B8157
:1012300023E06EE080960E941A088A819B8123E059
:1012400048AD6FE080960E941A0884EF91E0A0E01C
:101250008BAB9CABADABB80183E493E0DF91CF9156
:101260001F910F91FF90EF900C9485040C94BB1587
:101270000C94BB150C94BB150C94BB150C94BB15AE
:101280000C94BB15AF92BF92CF92DF92EF92FF9278
:101290000F931F93CF93DF931F92CDB7DEB78C01CF
:1012A00087E691E00E945706F80166AD70E090E095
:1012B00080E04AE00E940906F80186AD811127C04E
:1012C00089E691E00E9464067801F0E4EF0EF11CDB
:1012D000F70180819181009709F077C0F80180AD16
:1012E00091AD26AD222311F195AF84AF93AF82AFBC
:1012F00081E090E0F7019183808383E791E00E9491
:101300006406F80160AD71AD605F7F4F23C08AE66F
:1013100091E00E945706F80167AD70E090E080E030
:101320004AE00E9409068FE691E0CCCF8A36F2E6C9
:101330009F0740F423E030E0F7013183208364E22B
:101340007BEC06C064ED7AEC8B36F5E69F07B8F3CC
:10135000681B790BC8010E94E808F7018081918120
:10136000039739F581EA91E00E945706F80182ADB2
:1013700093AD0E9469088DEA91E00E945706F8013A
:1013800084AD95AD0E9469088BE691E00E945604F9
:10139000F80122AD33AD84AD95AD2817390709F0BA
:1013A00041C02A36F5E63F07E9F585EB91E00E945A
:1013B00057060F90DF91CF911F910F91FF90EF9003
:1013C000DF90CF90BF90AF90089581309105C1F428
:1013D000F80186AD882329F060AD71AD75AF64AFBB
:1013E00093CF82E090E0F701918380838AE891E0D7
:1013F0000E946406F80162AD73AD60517109AACF15
:10140000029709F0AACFF80186AD882329F060ADD4
:1014100071AD73AF62AFF1CF83E090E0F7019183DC
:1014200080839BCF821B930B96958795820F931F8A
:10143000F80191AF80AF83ED91E00E945706F8016B
:1014400081AD0E94C707F80180AD0E94C707F8016F
:1014500060AD71AD90E080E081960E94B50889E6AC
:1014600091E00E94640689EE91E00E945706F8011F
:1014700081AD0E94C707F80180AD0E94C707F8013F
:10148000C0A4FCEFCF0E198241E050E064E070E0B0
:10149000CE0101960E945813F980198241E050E074
:1014A00065E070E0CE0101960E945813E980D12CCE
:1014B000B12CA12CAC14BD0470F41982B5016C5F81
:1014C0007F4F41E050E0CE0101960E9468132FEF5C
:1014D000A21AB20AEFCF82E892E00E945706F80102
:1014E00081AD898341E050E064E070E0CE01019677
:1014F0000E94681382E892E00E945706F80180ADCE
:10150000898341E050E065E070E0CE0101960E94E1
:10151000681382E892E00E945706A12C5EE5B52E82
:10152000F1E0CF1AD1086A2D70E06C157D056CF4DE
:1015300019826C5F7F4F41E050E0CE0101960E941E
:1015400058138981B826A394EECFB982B6017727C4
:101550006C5F7F4F41E050E0CE0101960E9468131E
:1015600082E092E00E94640680EA8F0D8B30C8F41E
:101570008AE092E00E9457068F2D0E94C7078E2DA9
:101580000E94C7076F2D70E0762F6627072E000C8C
:10159000880B990B81966E0D711D811D911D0E9406
:1015A000B50885E292E00E94640685E992E00E9417
:1015B000A702F80102811381F801878D8111CEC045
:1015C00085E992E00E94A7028091C00085FD06C0D7
:1015D0008091C00080648093C000F6CF8091C000ED
:1015E00086FFFCCF80916F008E7F80936F0083E435
:1015F00093E00E946004009709F48CC0FC013297CC
:1016000009F488C0C580D680E780F12C85E493E09A
:101610000E946004892B09F07AC0F1E0CF16D10452
:10162000E104F10409F473C0F80183A580FD18C03A
:10163000BB24BA9486E30E94E003BA94807731F029
:10164000FAE1FA95F1F700C0B110F4CF8AE30E94F5
:10165000E00389E30E94E003F80183A5816083A78A
:10166000F1E2CF16F3E0DF06E104F10408F056C022
:1016700025E6C216D104E104F10408F058C04DE09B
:10168000C416D104E104F10408F059C082E0C81680
:10169000D104E104F10408F05AC06AE070E0C12C02
:1016A000D12C760130E020E050E040E086E892E086
:1016B0000E944F0383E493E00E946004009719F1B5
:1016C000FC01329701F121E0C21AD108E108F108CA
:1016D00085819681A781AC016A2F70E04150510944
:1016E000610971094C155D056E057F0530F46C01CB
:1016F000EA2E41E0C41AD108E1088C199D09AE090F
:1017000085839683A78383E493E00E94BD050E94AE
:101710000E044FCEC12CD12C760178CF69E070E059
:1017200030E2C32E33E0D32EE12CF12CBBCF66E0A8
:1017300070E024E6C22ED12CE12CF12CB3CF63E073
:1017400070E09CE0C92ED12CE12CF12CABCF70E0E5
:1017500060E0C12CD12C7601C394A4CF61E0C80114
:1017600080960E94350425CE8E970C9442091F92D4
:101770000F920FB60F9211242F933F938F939F9345
:10178000AF93BF938091910290919202A0919302A6
:10179000B09194023091900226E0230F2D3758F536
:1017A0000296A11DB11D2093900280939102909307
:1017B0009202A0939302B093940280918C02909134
:1017C0008D02A0918E02B0918F020196A11DB11DD4
:1017D00080938C0290938D02A0938E02B0938F021F
:1017E000BF91AF919F918F913F912F910F900FBE1D
:1017F0000F901F90189529E8230F0396A11DB11D86
:10180000D2CF1F920F920FB60F9211242F933F93B6
:101810004F935F936F937F938F939F93AF93BF93F8
:10182000EF93FF9385E992E00E941D02FF91EF91F3
:10183000BF91AF919F918F917F916F915F914F91E8
:101840003F912F910F900FBE0F901F9018951F92F0
:101850000F920FB60F9211242F938F939F93EF93B4
:10186000FF93E091A502F091A6028081E091AB0286
:10187000F091AC0282FD1BC090818091AE028F5F1F
:101880008F732091AF02821741F0E091AE02F0E039
:10189000EB56FD4F958F8093AE02FF91EF919F9194
:1018A0008F912F910F900FBE0F901F9018958081F0
:1018B000F4CF1F920F920FB60F9211242F933F93E4
:1018C0004F935F936F937F938F939F93AF93BF9348
:1018D000EF93FF93E0910201F09103010995FF91CD
:1018E000EF91BF91AF919F918F917F916F915F9198
:1018F0004F913F912F910F900FBE0F901F90189511
:101900001F920F920FB60F9211242F933F934F9374
:101910005F936F937F938F939F93AF93BF93EF9357
:10192000FF93E0910001F09101010995FF91EF9182
:10193000BF91AF919F918F917F916F915F914F91E7
:101940003F912F910F900FBE0F901F9018951F92EF
:101950000F920FB60F9211248F930FB6F894A8959B
:1019600080916000886180936000109260000FBEDB
:101970008F910F900FBE0F901F9018951F920F928E
:101980000FB60F9211242F933F934F935F936F9352
:101990007F938F939F93AF93BF93CF93DF93EF93F7
:1019A000FF93C2E3D3E060E089810E94F0021092CD
:1019B000B1006A817B818C819D810E94B713609305
:1019C000B30081E08E83FF91EF91DF91CF91BF91C2
:1019D000AF919F918F917F916F915F914F913F91C7
:1019E0002F910F900FBE0F901F9018951F920F927E
:1019F0000FB60F9211240F900FBE0F901F901895E5
:101A00001F920F920FB60F9211242F933F934F9373
:101A10005F936F937F938F939F93AF93BF93EF9356
:101A2000FF93EEE3F3E084818F5F8483CF010E9414
:101A3000BD05FF91EF91BF91AF919F918F917F91E4
:101A40006F915F914F913F912F910F900FBE0F902B
:101A50001F9018951F920F920FB60F9211242F937B
:101A60003F934F935F936F937F938F939F93AF9326
:101A7000BF93EF93FF9383E493E00E94BD05FF9132
:101A8000EF91BF91AF919F918F917F916F915F91F6
:101A90004F913F912F910F900FBE0F901F9018956F
:101AA000E5E9F2E01382128288EE93E0A0E0B0E074
:101AB00084839583A683B7838EE091E091838083AE
:101AC00085EC90E09587848784EC90E09787868703
:101AD00080EC90E0918B808B81EC90E0938B828BFB
:101AE00082EC90E0958B848B86EC90E0978B868BD4
:101AF000118E128E138E148E10923903EBE3F3E0E5
:101B0000128211821082E3E4F3E0118210821382C8
:101B10001282EEE3F3E011821082138212821482A9
:101B2000E3EEF3E082EF80838EE081831282E0EEC9
:101B3000F3E081EF808380E2818385E08283E6E9C0
:101B4000F3E01582148217821086118682E591E0F7
:101B500093838283128A138A148A158A81E086838A
:101B6000128E118E148E158E168E28E431E0308F71
:101B7000278B178E838F11A215A214A217A210A66D
:101B800011A62EE331E033A322A312A686A388E098
:101B900083A714A615A616A617A612AA11AA10AAFC
:101BA00015AA14AA13AA16AA17AAE1E5F3E013824C
:101BB000128287E893E095838483168211861086CB
:101BC000178212861386148615861686118A108A45
:101BD0001786148A138A128A158A168A80E290E080
:101BE00091A780A721ED32E033A722A714A615A65E
:101BF00011AA10AA12AA13AA14AA15AA2AE231E05D
:101C00003183208328E331E037A726A797AB86AB43
:101C10008AE695E691AF80AF93AF82AF95AF84AF80
:101C200016AE17AE10929203109291031092950384
:101C30001092940310929303E7E4F3E0138212826C
:101C4000148215821682178280E291E0918380834C
:101C500010860895CF93DF9300D01F92CDB7DEB7E3
:101C6000789484B5826084BD84B5816084BD85B577
:101C7000826085BD85B5816085BD80916E00816083
:101C800080936E0010928100809181008260809329
:101C9000810080918100816080938100809180002B
:101CA0008160809380008091B10084608093B10056
:101CB0008091B00081608093B00080917A00846050
:101CC00080937A0080917A00826080937A0080917C
:101CD0007A008E7F80937A0080917A00806880936A
:101CE0007A001092C100E091A502F091A60282E074
:101CF0008083E091A102F091A2021082E091A30200
:101D0000F091A40280E180831092AD02E091A902DB
:101D1000F091AA0286E08083E091A702F091A802E8
:101D2000808180618083E091A702F091A802808188
:101D300088608083E091A702F091A802808180688A
:101D40008083E091A702F091A80280818F7D80833B
:101D50008BE892E00E94580486E993E09093540344
:101D60008093530360917B0370917C0343E050E0C8
:101D7000CE0101960E9418119A818B8129812093AE
:101D80009303909394038093950384E08093AA0334
:101D900061E00E941E0388E993E00E941804E8981D
:101DA0008EE991E0909301018093000186EB93E02E
:101DB00090938B0280938A0283E892E00E945604FB
:101DC00060E082E00E941E0381E892E00E945804D5
:101DD00061E08AE00E941E0361E08BE00E941E0326
:101DE00060E08CE00E941E0361E08DE00E941E0313
:101DF00080E58CBD61E08AE00E94F00261E08DE048
:101E00000E94F00260E08BE00E94F0020E94DC037E
:101E10000E94A7030E949D0345E84A95F1F7000040
:101E20000E94DC030E94A70380E30E94A1030E949A
:101E3000A7030E949D030DE412E051E8C52E52E075
:101E4000D52EFF24F394F80131964491F801649162
:101E500023E086EB93E00E941A08811101C0F12C67
:101E60000E5F1F4FC016D10671F780E492E00E940A
:101E7000560460EC81E30E94F8030E94C70784E3E4
:101E800092E00E94560483E30E94E0038FEA93EB02
:101E90000197F1F700C0000023E040EC6EE386EB11
:101EA00093E00E941A0887E392E00E945804FF2002
:101EB00059F00E94DC030E94A7030E949D030E9428
:101EC000EF0384E30E94E0038AE294E0909301012F
:101ED00080930001809169008C7F8260809369000B
:101EE000E89A80E180938100109280001092850032
:101EF0001092840080E49CE9909387008093860090
:101F000081E1809381000E940E0406E010E0F11050
:101F100002C008E010E088E993E00E94430588E9E8
:101F200093E00E941804B80143E0660F771F4A95BA
:101F3000E1F764517E4F48E050E080EA93E00E9470
:101F400018118091A003882371F01092A8031092B9
:101F5000A90363E473E088E993E00E94F70488E949
:101F600093E00E9421048091950390E001962AE07D
:101F7000289F8001299F100D112488EB93E00E9477
:101F8000430524E630E0D8010E94121528EE33E024
:101F900040E050E00E94E1142093BD033093BE0363
:101FA0004093BF0381E08093C00368EB73E083E458
:101FB00093E00E94850487E392E00E945706809197
:101FC000E0030E94C7078091E1030E94C707809148
:101FD000E2030E94C70788E092E00E94640680E75F
:101FE00092E00E9464066AE675E681E593E00E944D
:101FF000E80863E473E087E493E00E946A0606E77A
:1020000030E0A32E30E0B32EE0905303F090540361
:10201000D7019B968C919B9782FFCAC09B968C910F
:102020009B978B7F9B968C936701BDE2CB0ED11C57
:1020300060EC8BE30E94F80318160CF042C060E8D5
:102040008FE30E94F803182F8D3108F06BC00E94B7
:10205000DC030E94A7038FEF0E94A1037C2C4601A2
:10206000882D8719811738F480E00E94A103F401BC
:1020700081934F01F5CF0E949D0360E88FE30E949A
:10208000F803282F30E0082E000C990B8827917058
:10209000A901481B590BCA0157FD019695958795D3
:1020A000919581959109865BD70191968C9360E813
:1020B0008FE30E94F80387FD05C086EC92E00E9442
:1020C000580410E08AE30E94E003EBE7F1E0319767
:1020D000F1F700C000000E94EF0384E30E94E003D8
:1020E0001123D1F1D7019C961C939C979D968C91BE
:1020F0009D97982F90279D969C93A1E0412F50E0AB
:102100009A01215031096A2F70E0F601E60FF71F9E
:10211000908162177307B4F4845289278083AF5F7C
:10212000892FF1CF85EB92E00E945604612F70E079
:1021300090E080E04AE00E94090682EB92E00E9473
:102140005604BFCFD7019E968C9189278083B60114
:102150008DE593E00E94441610935C03F70114A6EA
:1021600060E0C70180960E94350480915C038A304C
:10217000F8F060917B0370917C0343E050E0CE0166
:1021800001960E94181129819A818B8130916003F8
:10219000321308C020916103291304C09091620397
:1021A000981731F06CE573E081E593E00E94D80761
:1021B00085E493E00E941E05FC01009779F00297E8
:1021C00069F022812D7F2283DC01ED91FC91019049
:1021D000F081E02D63E473E00995EACFA114B10426
:1021E00009F412CF0E940902882309F40DCF0E943E
:1021F00000000ACFEF920F931F93CF93DF93E80174
:1022000034E047FD34E1042E000C550B57FF03C0AA
:10221000519541955109E32E022F242FAE010E94C2
:102220002111CE01DF91CF911F910F91EF90089571
:10223000FB01DC0102C005900D9241505040D8F7DF
:102240000895A9E0B0E0E7E2F1E10C9486136A0199
:10225000F22EB02E102FFBE3AF2EA01608F41BE3D6
:102260001F5F012F27E0AE014F5F5F4F0E9480127A
:10227000BC018981982F9970913009F43FC09BE28D
:10228000E1FC04C09E2D9170E0FC3AC05E2D5071BF
:10229000E82FE87083FF46C084E0911101C083E01D
:1022A000EF2DE81B8F1508F0E0E0D6018E2F20E21D
:1022B000552351F1992329F0D6019C93C60101962B
:1022C0006C0196012D5F3F4FE2FE24C08EE4D601E3
:1022D0008C9391E411969C93119712968C93D9014B
:1022E0008E2F90E281111BC0E20FF32FF11D10829F
:1022F0008EEF9FEF2996ECE00C94A2139DE2C6CFDF
:1023000090E2C4CF2D9381508111FCCFCE0ED11C11
:10231000E0E0D0CF8EE6D6018C9391E6DBCF9D93A3
:102320008150E0CF482F447082FF3DC084E091117E
:1023300001C083E08F1510F4EF2DE81BD6018E2F1E
:1023400020E2552309F1992329F0D6019C93C60177
:1023500001966C0196012D5F3F4FE2FE1BC089E4A0
:10236000D6018C938EE411968C93119786E4129685
:102370008C93D9018E2F90E2882309F4B5CF9D93D9
:102380008150FACF2D9381508111FCCFCE0ED11CFC
:10239000E0E0D9CF89E6D6018C938EE611968C9336
:1023A000119786E6E4CF9B0177FF02C030E020E082
:1023B000A1E0B0E0911102C0B0E0A0E0F9013196D7
:1023C000AE0FBF1F8B2C912CBB2009F461C05401B0
:1023D000EFEFAE1ABE0AAA0DBB1DFA161B0619F0C6
:1023E00014F04F2D4A1B511188C0E3FC59C07601EF
:1023F000A42FB0E2A1114FC0C40ED11C992309F43F
:102400005BC040E0D6011196F60190836D01552323
:1024100009F448C0012F060F9A81582F507184FF8C
:1024200003C0913309F4015010160CF047C0093075
:1024300008F008E0EEE2FE2E5B01A01AB10885016B
:102440009194819491082F3F320729F4D601FC9290
:10245000F60131966F016217730794F102171307A3
:102460007CF5DB01A21BB30BAA24A394B12CAC0E08
:10247000BD1EAA0DBB1D11968C9121503109D601AC
:10248000119628153905F4F0F60180836D01DBCF34
:10249000B12CA12CA0CFF701B1937F01A150AACFFD
:1024A0009111B0CFD601942F50E302C05D939150AB
:1024B0009111FCCFC40ED11C40E0ACCF01E0BACFEB
:1024C00080E3DBCF6217730731F4963388F49533DA
:1024D00011F4552369F0F6018083FD01842F90E209
:1024E000811108C0A40FB11D1C9290E080E002CFC2
:1024F00081E3F1CF91938150F3CF911183CF8ACFB4
:10250000283008F027E03327DA01990F311D87FDC5
:10251000916000966105710539F432602E5F3D933C
:1025200030E32A95E1F708959F3F30F08038710538
:10253000610509F03C5F3C5F3D93913008F0806895
:10254000911DDF93CF931F930F93FF92EF92192F5B
:10255000987F9695E92F96959695E90FFF27EE536C
:10256000FF4F99273327EE24FF24A701E7010590A9
:102570000894079428F4360FE71EF81E491F511DD2
:10258000660F771F881F991F0694A1F7059007947F
:1025900028F4E70EF81E491F561FC11D770F881F2C
:1025A000991F661F0694A1F70590079428F4F80E6A
:1025B000491F561FC71FD11D880F991F661F771F00
:1025C0000694A1F70590079420F4490F561FC71FE2
:1025D000D81F990F661F771F881F0694A9F784914B
:1025E0001095177041F0D695C79557954795F79474
:1025F000E7941A95C1F7E8E6F0E068941590159114
:1026000035916591959105907FE27395E118F10AF6
:10261000430B560BC90BD009C0F7E10CF11E431F49
:10262000561FC91FD01D7EF4703311F48A95E6CF72
:10263000E894015030F0080F0AF40027021708F45C
:10264000202F2395022F7A3328F079E37D932A9562
:10265000E9F710C07D932A9589F6069497956795BA
:10266000379517951794E118F10A430B560BC90BD0
:10267000D00998F023957E9173957A3308F070E332
:102680007C932013B8F77E9170617D9330F0839531
:1026900071E37D9370E32A95E1F71124EF90FF90A9
:1026A0000F911F91CF91DF91992787FD9095089504
:1026B000DC01CB01FC01F999FECF06C0F2BDE1BD02
:1026C000F89A319600B40D9241505040B8F70895F1
:1026D000DC01CB0103C02D910E9473134150504087
:1026E000D0F70895262FF999FECF1FBA92BD81BD6C
:1026F00020BD0FB6F894FA9AF99A0FBE0196089584
:102700002F923F924F925F926F927F928F929F9201
:10271000AF92BF92CF92DF92EF92FF920F931F93EF
:10272000CF93DF93CDB7DEB7CA1BDB0B0FB6F894A0
:10273000DEBF0FBECDBF09942A88398848885F84E0
:102740006E847D848C849B84AA84B984C884DF8051
:10275000EE80FD800C811B81AA81B981CE0FD11D35
:102760000FB6F894DEBF0FBECDBFED0108950E94F5
:102770002B1488F09F5798F0B92F9927B751B0F0D4
:10278000E1F0660F771F881F991F1AF0BA95C9F7F5
:1027900014C0B13091F00E944514B1E008950C943A
:1027A0004514672F782F8827B85F39F0B93FCCF3ED
:1027B000869577956795B395D9F73EF49095809572
:1027C000709561957F4F8F4F9F4F0895E89409C092
:1027D00097FB3EF490958095709561957F4F8F4F54
:1027E0009F4F9923A9F0F92F96E9BB279395F6956A
:1027F000879577956795B795F111F8CFFAF4BB0FE8
:1028000011F460FF1BC06F5F7F4F8F4F9F4F16C04B
:10281000882311F096E911C0772321F09EE8872FD5
:10282000762F05C0662371F096E8862F70E060E091
:102830002AF09A95660F771F881FDAF7880F96950A
:10284000879597F9089557FD9058440F551F59F0F3
:102850005F3F71F04795880F97FB991F61F09F3F8D
:1028600079F087950895121613061406551FF2CFB6
:102870004695F1DF08C0161617061806991FF1CF06
:1028800086957105610508940895E894BB2766272D
:102890007727CB0197F908950E945F140C94D01408
:1028A0000E94C21438F00E94C91420F0952311F040
:1028B0000C94B9140C94BF1411240C9446140E9467
:1028C000231470F3959FC1F3950F50E0551F629F3D
:1028D000F001729FBB27F00DB11D639FAA27F00D79
:1028E000B11DAA1F649F6627B00DA11D661F829FA0
:1028F0002227B00DA11D621F739FB00DA11D621F85
:10290000839FA00D611D221F749F3327A00D611DA1
:10291000231F849F600D211D822F762F6A2F112483
:102920009F5750409AF0F1F088234AF0EE0FFF1FB6
:10293000BB1F661F771F881F91505040A9F79E3F0D
:10294000510580F00C94B9140C9446145F3FE4F3E5
:10295000983ED4F3869577956795B795F795E79563
:102960009F5FC1F7FE2B880F911D9695879597F96C
:10297000089597F99F6780E870E060E008959FEF01
:1029800080EC089500240A94161617061806090606
:10299000089500240A9412161306140605060895D5
:1029A000092E0394000C11F4882352F0BB0F40F45D
:1029B000BF2B11F460FF04C06F5F7F4F8F4F9F4F9D
:1029C0000895A1E21A2EAA1BBB1BFD010DC0AA1F70
:1029D000BB1FEE1FFF1FA217B307E407F50720F088
:1029E000A21BB30BE40BF50B661F771F881F991F03
:1029F0001A9469F760957095809590959B01AC014C
:102A0000BD01CF010895A29FB001B39FC001A39F54
:102A1000700D811D1124911DB29F700D811D112417
:102A2000911D08950E940315B7FF0895821B930B13
:102A30000895EE0FFF1F0590F491E02D09940F9378
:102A40001F93CF93DF938230910510F482E090E0E2
:102A5000E091E803F091E90330E020E0B0E0A0E08D
:102A6000309799F42115310509F44AC0281B390B18
:102A700024303105D8F58A819B816115710589F172
:102A8000FB0193838283FE0111C040815181028149
:102A9000138148175907E0F04817590799F4109720
:102AA00061F012960C93129713961C933296CF01F5
:102AB000DF91CF911F910F9108950093E803109338
:102AC000E903F4CF2115310551F04217530738F0CF
:102AD000A901DB019A01BD01DF01F801C1CFEF01BE
:102AE000F9CF9093E9038093E803CDCFFE01E20F85
:102AF000F31F819391932250310939832883D7CFD3
:102B00002091E6033091E703232B41F42091060145
:102B1000309107013093E7032093E60320910401ED
:102B2000309105012115310541F42DB73EB7409193
:102B3000080150910901241B350BE091E603F09147
:102B4000E703E217F307A0F42E1B3F0B2817390702
:102B500078F0AC014E5F5F4F2417350748F04E0FF9
:102B60005F1F5093E7034093E603819391939FCFB8
:102B7000F0E0E0E09CCFCF93DF930097E9F0FC0119
:102B8000329713821282A091E803B091E903ED011C
:102B900030E020E01097A1F420813181820F931F53
:102BA0002091E6033091E7032817390709F061C047
:102BB000F093E703E093E603DF91CF910895EA01F4
:102BC000CE17DF07E8F54A815B819E01411551056B
:102BD000B1F7E901FB83EA8349915991C40FD51FED
:102BE000EC17FD0761F4808191810296840F951F97
:102BF000E90199838883828193819B838A83F0E0B2
:102C0000E0E012968D919C9113970097B9F52D9164
:102C10003C911197CD010296820F931F2091E603FC
:102C20003091E7032817390739F6309751F510929C
:102C3000E9031092E803B093E703A093E603BCCF47
:102C4000D383C28340815181840F951FC817D90750
:102C500061F44E5F5F4F88819981480F591F5183FE
:102C600040838A819B81938382832115310509F0FA
:102C7000B0CFF093E903E093E8039ECFFD01DC01C0
:102C8000C0CF13821282D7CFFB01DC0102C00190BA
:0E2C90000D9241505040D8F70895F894FFCFB0
:102C9E009E019E010000EA038000000000003F023A
:102CAE009F01CC01A702FD01DB01EF010000000036
:102CBE006A065E043609000000005F043E09170430
:102CCE00D8074209D2FF0000B40B00000000140424
:102CDE005304380900000000140453044009000096
:102CEE000000870854043A09204D487A0046726560
:102CFE0071203078323100202000202F202D0064EA
:102D0E00426D0053656172636820666F7220757044
:102D1E0070657220626F756E6400536561726368D0
:102D2E0020666F72206C6F77657220626F756E64AD
:102D3E00000A446F6E653A203078323100202D2023
:102D4E003078323100436F756C64206E6F74207270
:102D5E0065636569766520616E79206D6573736153
:102D6E0067650043616C63756C61746564204672BF
:102D7E0065713A20307832310053746F7265206974
:102D8E006E746F20636F6E66696720617265613A5B
:102D9E00200073746F72656421000A4F6C642043C7
:102DAE006F6E6669672046726571207761733A208F
:102DBE003078323100476F696E6720746F20736C04
:102DCE006565702E2E2E00416374697665207069DC
:102DDE006E6720697320656E61626C65642C206C71
:102DEE006F6F6B696E6720666F722074656C6567B6
:102DFE0072616D73206F6E6C792066726F6D20003C
:102E0E00537461727420736561726368696E6720B2
:042E1E002E2E2E0026
:107800000C94343C0C94513C0C94513C0C94513CE1
:107810000C94513C0C94513C0C94513C0C94513CB4
:107820000C94513C0C94513C0C94513C0C94513CA4
:107830000C94513C0C94513C0C94513C0C94513C94
:107840000C94513C0C94513C0C94513C0C94513C84
:107850000C94513C0C94513C0C94513C0C94513C74
:107860000C94513C0C94513C11241FBECFEFD8E036
:10787000DEBFCDBF11E0A0E0B1E0EAE8FFE702C063
:1078800005900D92A230B107D9F712E0A2E0B1E065
:1078900001C01D92AD30B107E1F70E942D3D0C945F
:1078A000C33F0C94003C982F95959595959595958B
:1078B000905D8F708A307CF0282F295A8091C0000B
:1078C00085FFFCCF9093C6008091C00085FFFCCF60
:1078D0002093C6000895282F205DF0CF982F809127
:1078E000C00085FFFCCF9093C6000895EF92FF92F1
:1078F0000F931F93EE24FF2487018091C00087FD22
:1079000017C00894E11CF11C011D111D81E2E8164D
:1079100081EAF80687E0080780E0180770F3E09135
:107920000401F091050109958091C00087FFE9CF1E
:107930008091C6001F910F91FF90EF9008950E94D3
:10794000763C982F8091C00085FFFCCF9093C600B5
:1079500091362CF490330CF09053892F089597555D
:10796000892F08951F930E949F3C182F0E949F3CCF
:107970001295107F810F1F9108951F93182F882350
:1079800021F00E94763C1150E1F71F9108951F935A
:10799000182F0E94763C803249F0809103018F5F5E
:1079A000809303018530C1F01F9108958091C0003C
:1079B00085FFFCCF84E18093C6008091C00085FFE5
:1079C000FCCF1093C6008091C00085FFFCCF80E102
:1079D0008093C6001F910895E0910401F091050184
:1079E00009951F9108950E94763C803241F0809164
:1079F00003018F5F80930301853081F008958091AA
:107A0000C00085FFFCCF84E18093C6008091C00058
:107A100085FFFCCF80E18093C6000895E0910401CA
:107A2000F09105010995089548EC50E08823A1F0F4
:107A30002D9A28EE33E0FA013197F1F721503040CA
:107A4000D1F72D9828EE33E0FA013197F1F7215064
:107A50003040D1F7815061F708953F924F925F9285
:107A60006F927F928F929F92AF92BF92CF92DF924E
:107A7000EF92FF920F931F93CF93DF93000082E06A
:107A80008093C00080E18093C4001092C50088E11B
:107A90008093C10086E08093C2005098589A259A3E
:107AA00081E00E94143D24E1F22E9EE1E92E85E959
:107AB000D82E0FE0C02E10E1B12EAA24A394B1E479
:107AC0009B2EA6E58A2EF2E57F2EE0E26E2E79E46B
:107AD000572E63E5462E50E5352E0E94763C8033C6
:107AE000B1F18133B9F1803409F46FC0813409F404
:107AF00076C0823409F485C0853409F488C08035A5
:107B000031F1823521F1813511F1853509F485C0D6
:107B1000863509F48DC0843609F496C0843709F49B
:107B200003C1853709F472C1863709F466C08091B4
:107B300003018F5F80930301853079F6E0910401A2
:107B4000F091050109950E94763C803351F60E9420
:107B5000F33CC3CF0E94763C803249F78091C0004D
:107B600085FFFCCFF092C6008091C00085FFFCCF5E
:107B70009092C6008091C00085FFFCCF8092C60025
:107B80008091C00085FFFCCF7092C6008091C0003C
:107B900085FFFCCF6092C6008091C00085FFFCCFBE
:107BA0005092C6008091C00085FFFCCF4092C60075
:107BB0008091C00085FFFCCF3092C6008091C0004C
:107BC00085FFFCCFB092C60088CF0E94763C8638F5
:107BD00008F4BDCF0E94763C0E94F33C7ECF0E9409
:107BE000763C803809F49CC0813809F40BC1823896
:107BF00009F430C1883909F48FC080E00E94C73C85
:107C00006CCF84E10E94BD3C0E94F33C66CF85E0CE
:107C10000E94BD3C0E94F33C60CF0E94763C809362
:107C200006010E94763C809307010E94F33C55CFE9
:107C30000E94763C803309F411C183E00E94BD3C70
:107C400080E00E94C73C49CF0E94763C80930902A5
:107C50000E94763C8093080280910C028E7F809374
:107C60000C020E94763C853409F409C18091080217
:107C700090910902892B89F000E010E00E94763C87
:107C8000F801E85FFE4F80830F5F1F4F809108026D
:107C9000909109020817190788F30E94763C8032F8
:107CA00009F045CF80910C0280FFF5C0609106017C
:107CB00070910701660F771F7093070160930601AB
:107CC000A0910802B09109021097C9F0E8E0F1E034
:107CD0009B01AD014E0F5F1FF999FECF32BD21BD53
:107CE000819180BDFA9AF99A2F5F3F4FE417F5070B
:107CF00099F76A0F7B1F70930701609306018091CB
:107D0000C00085FFFCCFF092C6008091C00085FFC7
:107D1000FCCFB092C600E1CE83E00E94C73CDDCE2E
:107D200082E00E94C73CD9CE0E94763C8093090233
:107D30000E94763C80930802809106019091070191
:107D4000880F991F90930701809306010E94763C4B
:107D5000853409F49AC080910C028E7F80930C02C6
:107D60000E94763C803209F0B8CE8091C00085FF39
:107D7000FCCFF092C600A0910802B09109021097C2
:107D8000C1F180910C02082F0170182F1695117007
:107D9000E0910601F0910701AF014F5F5F4FBA011B
:107DA00020E030E00023B1F4112339F49491809164
:107DB000C00085FFFCCF9093C6002F5F3F4FCB01E3
:107DC0000196FA012A173B0780F4BC014F5F5F4F11
:107DD000002351F3F999FECFF2BDE1BDF89A90B5B9
:107DE0008091C00085FFFCCFE6CF709307016093C0
:107DF00006018091C00085FDE5CE8091C00085FF21
:107E0000F8CFE0CE81E00E94C73C67CE0E94763C6E
:107E1000803209F08CCE8091C00085FFFCCFF092BB
:107E2000C6008091C00085FFFCCFE092C600809123
:107E3000C00085FFFCCFD092C6008091C00085FFB6
:107E4000FCCFC092C6008091C00085FFFCCFB092ED
:107E5000C60043CE80E10E94C73C3FCE0E94763CE4
:107E60000E94763C182F0E94763C112309F483C0AF
:107E7000113009F484C08FE00E94C73C2ECE80915F
:107E80000C02816080930C02F1CE80910C02816023
:107E900080930C0265CF809107018823880F880B9F
:107EA0008A2180930B028091060190910701880F2F
:107EB000991F90930701809306018091080280FF2B
:107EC00009C08091080290910902019690930902DD
:107ED00080930802F894F999FECF1127E0910601EA
:107EE000F0910701C8E0D1E0809108029091090269
:107EF000103091F40091570001700130D9F303E084
:107F000000935700E8950091570001700130D9F3B4
:107F100001E100935700E8950990199000915700EE
:107F200001700130D9F301E000935700E8951395F3
:107F3000103498F011270091570001700130D9F3E7
:107F400005E000935700E89500915700017001305B
:107F5000D9F301E100935700E8953296029709F0B2
:107F6000C7CF103011F00296E5CF11248091C000E8
:107F700085FFC5CEC8CE8EE10E94C73CAECD85E957
:0A7F80000E94C73CAACDF894FFCF81
:027F8A00800075
:040000030000780081
:00000001FF
